:020000040800F2
:10500000005000209D810008F5FE0008F9FE000810
:105010001DFF000841FF000865FF000800000000B8
:1050200000000000000000000000000089FF0008F0
:105030008BFF0008000000008DFF000891FF0008B2
:10504000F1810008F1810008F18100080D020108DA
:10505000F1810008F1810008150001083500010800
:105060005500010889000108A9000108F181000824
:10507000F1810008F1810008F18100087502010842
:10508000F1810008F1810008B5FF0008F1810008F6
:1050900079020108F1810008F1810008C9000108C6
:1050A000F1810008F1810008F181000891010108F7
:1050B000DD010108ED010108FD010108E5FF00081F
:1050C000F5FF0008F1810008F181000805000108E2
:1050D000F1810008C5FF0008D5FF0008F181000834
:1050E0001901010835020108F181000800000000E3
:1050F00000000000000000000000000000000000B0
:0C51000000000000000000005FF808F153
:1051100081F0004102E000BF83F0004330B54FEA68
:1051200041044FEA430594EA050F08BF90EA020FD5
:105130001FBF54EA000C55EA020C7FEA645C7FEA68
:10514000655C00F0E2804FEA5454D4EB5555B8BF8B
:105150006D420CDD2C4480EA020281EA030382EAFC
:10516000000083EA010180EA020281EA0303362D8E
:1051700088BF30BD11F0004F4FEA01314FF4801C61
:105180004CEA113102D0404261EB410113F0004F73
:105190004FEA03334CEA133302D0524263EB43032A
:1051A00094EA050F00F0A780A4F10104D5F1200EC8
:1051B0000DDB02FA0EFC22FA05F2801841F1000123
:1051C00003FA0EF2801843FA05F359410EE0A5F1F7
:1051D00020050EF1200E012A03FA0EFC28BF4CF028
:1051E000020C43FA05F3C01851EBE37101F00045DE
:1051F00007D54FF0000EDCF1000C7EEB00006EEBEB
:105200000101B1F5801F1BD3B1F5001F0CD3490874
:105210005FEA30004FEA3C0C04F101044FEA4452CB
:1052200012F5800F80F09A80BCF1004F08BF5FEA52
:10523000500C50F1000041EB045141EA050130BD32
:105240005FEA4C0C404141EB010111F4801FA4F1D5
:105250000104E9D191F0000F04BF01460020B1FA2A
:1052600081F308BF2033A3F10B03B3F120020CDA62
:105270000C3208DD02F1140CC2F10C0201FA0CF040
:1052800021FA02F10CE002F11402D8BFC2F1200CA5
:1052900001FA02F120FA0CFCDCBF41EA0C0190405B
:1052A000E41AA2BF01EB0451294330BD6FEA0404A4
:1052B0001F3C1CDA0C340EDC04F11404C4F120028F
:1052C00020FA04F001FA02F340EA030021FA04F3A1
:1052D00045EA030130BDC4F10C04C4F1200220FAF8
:1052E00002F001FA04F340EA0300294630BD21FA36
:1052F00004F0294630BD94F0000F83F4801306BFFC
:1053000081F480110134013D4EE77FEA645C18BFEF
:105310007FEA655C29D094EA050F08BF90EA020F86
:1053200005D054EA000C04BF1946104630BD91EA7E
:10533000030F1EBF0021002030BD5FEA545C05D181
:105340004000494128BF41F0004130BD14F58004C0
:105350003CBF01F5801130BD01F0004545F0FE4134
:1053600041F470014FF0000030BD7FEA645C1ABF69
:10537000194610467FEA655C1CBF0B46024650EAA0
:10538000013406BF52EA033591EA030F41F40021CC
:1053900030BD00BF90F0000F04BF0021704730B552
:1053A0004FF4806404F132044FF000054FF0000127
:1053B00050E700BF90F0000F04BF0021704730B5E8
:1053C0004FF4806404F1320410F0004548BF4042BD
:1053D0004FF000013EE700BF42004FEAE2014FEA12
:1053E00031014FEA02701FBF12F07F4393F07F4FED
:1053F00081F06051704792F0000F14BF93F07F4F1F
:10540000704730B54FF4607401F0004521F0004161
:1054100020E700BF50EA010208BF704730B54FF0E7
:1054200000050AE050EA010208BF704730B511F0EC
:10543000004502D5404261EB41014FF4806404F124
:1054400032045FEA915C3FF4DCAE4FF003025FEAA6
:10545000DC0C18BF03325FEADC0C18BF033202EB2E
:10546000DC02C2F1200300FA03FC20FA02F001FA88
:1054700003FE40EA0E0021FA02F11444C1E600BF27
:1054800070B54FF0FF0C4CF4E06C1CEA11541DBFDA
:105490001CEA135594EA0C0F95EA0C0F00F0DEF8A5
:1054A0002C4481EA030621EA4C5123EA4C5350EA8A
:1054B000013518BF52EA033541F4801143F48013DB
:1054C00038D0A0FB02CE4FF00005E1FB02E506F06C
:1054D0000042E0FB03E54FF00006E1FB03569CF0C1
:1054E000000F18BF4EF0010EA4F1FF04B6F5007FC7
:1054F00064F5407404D25FEA4E0E6D4146EB060639
:1055000042EAC62141EA55514FEAC52040EA5E50C1
:105510004FEACE2EB4F1FD0C88BFBCF5E06F1ED86B
:10552000BEF1004F08BF5FEA500E50F1000041EBA2
:10553000045170BD06F0004646EA010140EA02004F
:1055400081EA0301B4EB5C04C2BFD4EB0C0541EA71
:10555000045170BD41F480114FF0000E013C00F386
:10556000AB8014F1360FDEBF002001F0004170BDAA
:10557000C4F10004203C35DA0C341BDC04F11404C3
:10558000C4F1200500FA05F320FA04F001FA05F24F
:1055900040EA020001F0004221F0004110EBD3701C
:1055A00021FA04F642EB06015EEA430E08BF20EA48
:1055B000D37070BDC4F10C04C4F1200500FA04F3EB
:1055C00020FA05F001FA04F240EA020001F000417D
:1055D00010EBD37041F100015EEA430E08BF20EAF0
:1055E000D37070BDC4F1200500FA05F24EEA020E38
:1055F00020FA04F301FA05F243EA020321FA04F067
:1056000001F0004121FA04F220EA020000EBD3701D
:105610005EEA430E08BF20EAD37070BD94F0000F1D
:105620000FD101F00046400041EB010111F4801F51
:1056300008BF013CF7D041EA060195F0000F18BF02
:10564000704703F00046520043EB030313F4801F3E
:1056500008BF013DF7D043EA0603704794EA0C0FF8
:105660000CEA135518BF95EA0C0F0CD050EA41060E
:1056700018BF52EA4306D1D181EA030101F000418B
:105680004FF0000070BD50EA410606BF10461946B3
:1056900052EA430619D094EA0C0F02D150EA0136BF
:1056A00013D195EA0C0F05D152EA03361CBF104600
:1056B00019460AD181EA030101F0004141F0FE419F
:1056C00041F470014FF0000070BD41F0FE4141F423
:1056D000780170BD70B54FF0FF0C4CF4E06C1CEA23
:1056E00011541DBF1CEA135594EA0C0F95EA0C0FD8
:1056F00000F0A7F8A4EB050481EA030E52EA033593
:105700004FEA013100F088804FEA03334FF08055B3
:1057100045EA131343EA12634FEA022245EA1115E0
:1057200045EA10654FEA00260EF000419D4208BF91
:10573000964244F1FD0404F5407402D25B084FEA3E
:105740003202B61A65EB03055B084FEA32024FF4EA
:1057500080104FF4002CB6EB020E75EB030E22BF47
:10576000B61A754640EA0C005B084FEA3202B6EB07
:10577000020E75EB030E22BFB61A754640EA5C00B6
:105780005B084FEA3202B6EB020E75EB030E22BF46
:10579000B61A754640EA9C005B084FEA3202B6EB47
:1057A000020E75EB030E22BFB61A754640EADC0006
:1057B00055EA060E18D04FEA051545EA16754FEA68
:1057C00006164FEAC30343EA52734FEAC2025FEA86
:1057D0001C1CC0D111F4801F0BD141EA00014FF015
:1057E00000004FF0004CB6E711F4801F04BF0143E6
:1057F0000020B4F1FD0C88BFBCF5E06F3FF6AFAE02
:10580000B5EB030C04BFB6EB020C5FEA500C50F191
:10581000000041EB045170BD0EF0004E4EEA113114
:1058200014EB5C04C2BFD4EB0C0541EA045170BD1B
:1058300041F480114FF0000E013C90E645EA060E5F
:105840008DE60CEA135594EA0C0F08BF95EA0C0F8D
:105850003FF43BAF94EA0C0F0AD150EA01347FF4D5
:1058600034AF95EA0C0F7FF425AF104619462CE7AC
:1058700095EA0C0F06D152EA03353FF4FDAE10460F
:10588000194622E750EA410618BF52EA43067FF460
:10589000C5AE50EA41047FF40DAF52EA43057FF4F0
:1058A000EBAE12E74FF0FF3C06E000BF4FF0010CFB
:1058B00002E000BF4FF0010C4DF804CD4FEA410C5F
:1058C0007FEA6C5C4FEA430C18BF7FEA6C5C1BD02C
:1058D00001B050EA410C0CBF52EA430C91EA030FAD
:1058E00002BF90EA020F0020704710F1000F91EA0A
:1058F000030F58BF994208BF90422CBFD8176FEAD8
:10590000E37040F0010070474FEA410C7FEA6C5CA5
:1059100002D150EA013C07D14FEA430C7FEA6C5CAC
:10592000D6D152EA033CD3D05DF8040B704700BFD8
:105930008446104662468C461946634600E000BF26
:1059400001B5FFF7B7FF002848BF10F1000F01BDF8
:105950004DF808EDFFF7F4FF0CBF012000205DF8C3
:1059600008FB00BF4DF808EDFFF7EAFF34BF012048
:1059700000205DF808FB00BF4DF808EDFFF7E0FFE1
:1059800094BF012000205DF808FB00BF4DF808ED32
:10599000FFF7CEFF94BF012000205DF808FB00BF99
:1059A0004DF808EDFFF7C4FF34BF012000205DF87B
:1059B00008FB00BF4FEA410212F5001215D211D5C3
:1059C0006FF47873B3EB625212D94FEAC12343F0FC
:1059D000004343EA505311F0004F23FA02F018BF7E
:1059E000404270474FF00000704750EA013005D147
:1059F00011F0004008BF6FF0004070474FF000000A
:105A0000704700BF80F0004002E000BF81F000411D
:105A100042001FBF5FEA410392EA030F7FEA226C54
:105A20007FEA236C6AD04FEA1262D2EB1363C1BFE4
:105A3000D218414048404140B8BF5B42192B88BF53
:105A4000704710F0004F40F4000020F07F4018BF76
:105A5000404211F0004F41F4000121F07F4118BF96
:105A6000494292EA030F3FD0A2F1010241FA03FC3E
:105A700010EB0C00C3F1200301FA03F100F0004326
:105A800002D5494260EB4000B0F5000F13D3B0F1EE
:105A9000807F06D340084FEA310102F10102FE2A5D
:105AA00051D2B1F1004F40EBC25008BF20F00100CD
:105AB00040EA03007047490040EB000010F4000F7B
:105AC000A2F10102EDD1B0FA80FCACF1080CB2EB0E
:105AD0000C0200FA0CF0AABF00EBC250524218436D
:105AE000BCBFD0401843704792F0000F81F4000112
:105AF00006BF80F400000132013BB5E74FEA4103E5
:105B00007FEA226C18BF7FEA236C21D092EA030F50
:105B100004D092F0000F08BF0846704790EA010FCA
:105B20001CBF0020704712F07F4F04D1400028BFF7
:105B300040F00040704712F100723CBF00F50000D9
:105B4000704700F0004343F0FE4040F4000070470F
:105B50007FEA226216BF08467FEA236301464202BB
:105B600006BF5FEA412390EA010F40F480007047CE
:105B70004FF0000304E000BF10F0004348BF404274
:105B80005FEA000C08BF704743F0964301464FF0B0
:105B900000001CE050EA010208BF70474FF000030C
:105BA0000AE000BF50EA010208BF704711F000434D
:105BB00002D5404261EB41015FEA010C02BF84461D
:105BC0000146002043F0B64308BFA3F18053A3F57C
:105BD0000003BCFA8CF2083AA3EBC25310DB01FAC3
:105BE00002FC634400FA02FCC2F12002BCF1004F47
:105BF00020FA02F243EB020008BF20F001007047D8
:105C000002F1200201FA02FCC2F1200250EA4C002B
:105C100021FA02F243EB020008BF20EADC70704771
:105C20004FF0FF0C1CEAD0521EBF1CEAD15392EA7F
:105C30000C0F93EA0C0F6FD01A4480EA010C40025B
:105C400018BF5FEA41211ED04FF0006343EA5010B5
:105C500043EA5111A0FB01310CF00040B1F5000FF7
:105C60003EBF490041EAD3715B0040EA010062F1A6
:105C70007F02FD2A1DD8B3F1004F40EBC25008BF90
:105C800020F00100704790F0000F0CF0004C08BFAE
:105C900049024CEA502040EA51207F3AC2BFD2F17B
:105CA000FF0340EAC250704740F400004FF0000389
:105CB000013A5DDC12F1190FDCBF00F000407047C3
:105CC000C2F10002410021FA02F1C2F1200200FA01
:105CD00002FC5FEA310040F1000053EA4C0308BFC8
:105CE00020EADC70704792F0000F00F0004C02BF19
:105CF000400010F4000F013AF9D040EA0C0093F094
:105D0000000F01F0004C02BF490011F4000F013BED
:105D1000F9D041EA0C018FE70CEAD15392EA0C0F5B
:105D200018BF93EA0C0F0AD030F0004C18BF31F0C6
:105D3000004CD8D180EA010000F00040704790F09C
:105D4000000F17BF90F0004F084691F0000F91F040
:105D5000004F14D092EA0C0F01D142020FD193EA06
:105D60000C0F03D14B0218BF084608D180EA01008E
:105D700000F0004040F0FE4040F40000704740F06A
:105D8000FE4040F4400070474FF0FF0C1CEAD05238
:105D90001EBF1CEAD15392EA0C0F93EA0C0F69D094
:105DA000A2EB030280EA010C49024FEA402037D0FF
:105DB0004FF0805343EA111143EA10130CF00040F6
:105DC0008B4238BF5B0042F17D024FF4000C8B42E6
:105DD00024BF5B1A40EA0C00B3EB510F24BFA3EBC6
:105DE000510340EA5C00B3EB910F24BFA3EB910396
:105DF00040EA9C00B3EBD10F24BFA3EBD10340EAF0
:105E0000DC001B0118BF5FEA1C1CE0D1FD2A3FF635
:105E100050AF8B4240EBC25008BF20F001007047EA
:105E20000CF0004C4CEA50207F32C2BFD2F1FF038D
:105E300040EAC250704740F400004FF00003013ABE
:105E400037E792F0000F00F0004C02BF400010F462
:105E5000000F013AF9D040EA0C0093F0000F01F076
:105E6000004C02BF490011F4000F013BF9D041EA98
:105E70000C0195E70CEAD15392EA0C0F08D14202CB
:105E80007FF47DAF93EA0C0F7FF470AF084676E79E
:105E900093EA0C0F04D14B023FF44CAF08466EE777
:105EA00030F0004C18BF31F0004CCAD130F0004245
:105EB0007FF45CAF31F000437FF43CAF5FE700BF9D
:105EC0004FF0FF3C06E000BF4FF0010C02E000BFC6
:105ED0004FF0010C4DF804CD4FEA40024FEA410368
:105EE0007FEA226C18BF7FEA236C11D001B052EA1E
:105EF000530C18BF90EA010F58BFB2EB030088BFE4
:105F0000C81738BF6FEAE17018BF40F00100704752
:105F10007FEA226C02D15FEA402C05D17FEA236C34
:105F2000E4D15FEA412CE1D05DF8040B704700BF7B
:105F3000844608466146FFE70FB5FFF7C9FF002812
:105F400048BF10F1000F0FBD4DF808EDFFF7F4FF4B
:105F50000CBF012000205DF808FB00BF4DF808EDE4
:105F6000FFF7EAFF34BF012000205DF808FB00BF07
:105F70004DF808EDFFF7E0FF94BF012000205DF829
:105F800008FB00BF4DF808EDFFF7D2FF94BF0120DA
:105F900000205DF808FB00BF4DF808EDFFF7C8FFD3
:105FA00034BF012000205DF808FB00BF42000ED284
:105FB000B2F1FE4F0BD34FF09E03B3EB126209D444
:105FC0004FEA002343F0004323FA02F070474FF0FA
:105FD0000000704712F1610F01D1420202D14FF06F
:105FE000FF3070474FF00000704700BF014B036067
:105FF000704700BFA07E010810B5034B0446036044
:1060000009F01EFF204610BDA07E010838B50180B2
:1060100001EB41018DB2044645800371427128466F
:106020000FF02EFCA06018B100212A460FF079FC79
:10603000204638BD10B500210446407902F0BAFE72
:106040006079002102F0C7FE02F0F3FEE06010BDAF
:1060500030B5836885B00446002B00F0B88002F0AC
:10606000E8FEE368C01A3128F9D972B6227963884C
:10607000022AADF80630A3684CD062B602F0D9FE11
:10608000E060A4E0627918214A43524B9818808856
:106090009A581061029A039810421A4665D0004639
:1060A00000BF00BF00BF00BF00BF00BF00BF00BFF8
:1060B00000BF00BF00BF00BF00BF00BF00BF00BFE8
:1060C00000BF00BF00BF00BF00BF00BF00BF00BFD8
:1060D00000BF00BF00BF00BF00BF00BF00BF00BFC8
:1060E00000BF00BF00BF00BF00BF00BF00BF00BFB8
:1060F000607941430A445B5892885A61039B5B086C
:1061000003939DF802300133DBB2172B8DF8023078
:10611000B8D92B46BDF8062092B2002AADD04FF474
:1061200000020392BDF80620DD1C92B2033A92B23F
:10613000ADF806201A78D2B28DF803205A78D2B280
:106140008DF804209B78DBB28DF805309DF80310A4
:106150009DF804309DF805201B0243EA01431343D8
:10616000029300238DF802308CE7004600BF00BF89
:1061700000BF00BF00BF607941430A445B5892886A
:106180005A61004600BF00BF00BF00BF00BF00BF94
:1061900000BF00BF00BF00BF00BF00BF00BF00BF07
:1061A00000BF00BF00BF00BF00BF00BF00BF00BFF7
:1061B00000BF00BF00BF00BF00BF00BF00BF00BFE7
:1061C00000BF00BF00BF00BF00BF00BF96E705B023
:1061D00030BD00BF7400002030B503888B4213D956
:1061E0008379C2F30744C2F30725D2B22BB15C43D3
:1061F0005D435A43240A2D0A120A836801EB4101C8
:1062000058185D544470827030BD42EA012242EA5F
:106210000040704703888B420CD9836801EB410131
:1062200089B2585C19448B7843EA00204B7840EAE5
:1062300003407047002070474A1C8379D2B29A42CB
:1062400070B51FD0013B13F0FF0384680CD0FF2909
:1062500004D14FF6FF7191FBF3F106E01102013911
:1062600091FBF3F189B200E0194623461D1B4688D5
:10627000ADB2AE4205D91D784D432D1203F8015B36
:10628000F4E7827170BD000013B5084C0021009145
:106290000A460B46204602F089FE0549054A20467B
:1062A00002B0BDE810400FF09FBA00BF9C04002070
:1062B000ED5F0008941300200846704708B5406859
:1062C00003689B68984708BD08B540680368DB68A9
:1062D000984708BD70B5044640688D1803689B68F0
:1062E0009847064660680468E268904770438542B4
:1062F0008CBF0020012070BD37B5069C4068056842
:106300000094079C01942C6AA04703B030BD10B5DF
:10631000406804686469A04710BD10B5406804680F
:10632000A469A04710BD10B540680468E469A0479F
:1063300010BD0000014B0360704700BF487C01089E
:106340008068084470470000014B0360704700BF3D
:10635000487C0108C0680A4482428CBF00200120AA
:10636000704710B58368C468E41AFFF7A7FFB4FB51
:10637000F0F010BDF7B505681E466B6A0446174677
:106380009847089D01460095099D204601953A468B
:106390003346FFF7B1FF03B0F0BD4FF480507047B4
:1063A0004FF40070704700207047002070470000D5
:1063B000014B0360704700BF487C01082DE9F8439A
:1063C0001D46036881469B688846144698470746E1
:1063D00095B1B4FBF7F607FB1646BE1BAE4228BFCD
:1063E0002E464846414622463346FFF796FF20B1E7
:1063F000B0443444AD1BEBE70120BDE8F883000056
:10640000014B0360704700BF487C0108007B704768
:1064100010B5034B0446036009F012FD204610BD81
:10642000487C010810B5034B0446036009F008FDE1
:10643000204610BD487C010810B5034B044603609C
:1064400009F0FEFC204610BD487C010810B5034B46
:106450000446036009F0F4FC204610BD487C0108A6
:1064600008B5084611461A460AF0A5FF012008BDE6
:1064700008B5084611461A460AF0FBFF012008BD80
:1064800070B5036804469E6A9B680D469847294686
:1064900002462046B04720B16068294603681B6960
:1064A000984770BD10B5036804465B6A984701467B
:1064B0002046FFF7E5FF10BDF8B51E4603680F46FE
:1064C000144611469B6A32460546984730B16868C3
:1064D0003946036822465D693346A847F8BDF8B5DA
:1064E00005680E461F4611466B6A044698473146BA
:1064F00002463B462046FFF7DFFFF8BDF8B51E46D3
:1065000003680F46144611469B6A32460546984773
:1065100030B168683946036822469D693346A8470A
:10652000F8BDF8B505680E461F4611466B6A04466D
:106530009847314602463B462046FFF7DFFFF8BD4D
:10654000F8B51E4603680F46144611469B6A32464C
:106550000546984730B16868394603682246DD69C8
:106560003346A847F8BDF8B505680E461F461146E4
:106570006B6A04469847314602463B462046FFF781
:10658000DFFFF8BD08B50368DB6898470138C0B283
:1065900008BD08B503689B689847023808BD806845
:1065A000FFF7F7BF10B5074B04460360006908B159
:1065B00009F048FC606908B109F044FC024B204630
:1065C000236010BDA0AA0108487C010810B504464C
:1065D000FFF7E8FF204609F033FC204610BD70B5F8
:1065E00000249C4208D00E682518B54202D34E689C
:1065F000B54202D30134F4E770BDFF251555F9E724
:1066000010B503680C469B689847604310BD10B5F1
:1066100003680446DB68984701462046FFF7F0FF11
:1066200010BD38B503680C46DB680546984701463F
:106630002846FFF7E5FF844208D22B6828469B686E
:106640009847B4FBF0F303FB104008B1002038BDBD
:1066500020460AF096FE012038BD73B5002302AC37
:1066600024F8023D036805469E69FFF7C9FF2146ED
:10667000024602232846B047BDF8060002B070BDAE
:1066800073B5036802AC24F8022D5E690546FFF776
:10669000B7FF2146024602232846B04702B070BD2C
:1066A000F8B58D1804460E461746FFF7B0FF854231
:1066B00011D897B1236820469B6898472368B6FB9A
:1066C000F0F69B6820469847013DB5FBF0F0331A81
:1066D00058425841F8BD0020F8BD0120F8BD000027
:1066E0002DE9F04F1F46036887B003915B6A11469E
:1066F00005461646984700240290BC424CD2686872
:10670000DDF84480DDF808B0DDF80C900368C4EBD8
:10671000070AC24538BFD046A344A144D3F814C0E9
:1067200049465A464346E047002835D068681099E4
:1067300003685A46D3F818C04346E04700282BD0D8
:106740001098494642460FF0B9F818B32B6828460E
:106750009B689847B6FBF0F303FB1060109A204447
:106760000092119A2B680192049038440590D3F856
:1067700020C0284631460B4A04ABE04760B1109B6D
:10678000119A0093019228464946A2195346FFF7F1
:10679000A7FF04E04444B0E7E31B5842584107B068
:1067A000BDE8F08FDF650008F0B50E46A3B01446D3
:1067B00011461A4607461D46FFF772FF48B102AB65
:1067C0000093802301933846314622462B46FFF73B
:1067D00087FF23B0F0BD000038B5164D2B68DA07EF
:1067E0000BD4284609F07CFB38B1284609F07EFB23
:1067F00011481249124A0EF0F7FF6B680D4CDB0787
:1068000016D4201D09F06CFB90B10B4B201DE360EA
:106810000C4BA3604FF4002323614FF4001363611A
:1068200009F064FB04F108000749054A0EF0DCFF9B
:10683000064838BDA40400200000002001640008C0
:106840009413002038AA010849630008AC04002012
:106850002DE9F0471D46036882469B688946144629
:10686000984780469DB1B4FBF8F608FB1646C6EB88
:106870000806AE4228BF2E465046494622463346B9
:10688000089FB84720B1B1443444AD1BEAE701206A
:10689000BDE8F08713B5034C0094FFF7D9FF02B0B1
:1068A00010BD00BF0F63000813B5034C0094FFF741
:1068B000CFFF02B010BD00BF2763000810B5CB109A
:1068C000806801F007012AB1012202FA01F1C25CDD
:1068D000114305E0012404FA01F1C25C22EA01013E
:1068E000C15410BD2DE9F0430446A1B00068FFF784
:1068F00049FE804641462068FFF7AFFE42F6FF732F
:10690000984240D04546FF2D206835D02946FFF7F4
:1069100077FE0646206803689B68984700EB0609E7
:106920004E4521D22068C6EB09070368802F28BF97
:106930008027D3F818C0324669463B46E04700221C
:10694000BA4205D01DF80230FF2B03D10132F7E720
:106950001644E5E726682946336830461F69FFF785
:106960004FFE01463046B847294620460022013DE9
:10697000FFF7A4FFEDB2C6E7414642F6FF72FFF70C
:106980007FFE012000E0002021B0BDE8F083000080
:106990002DE9F04103680546DB680F469847B0F5DE
:1069A000807F50D887424ED2012F4CD9182009F051
:1069B00043FA264B0646456046F8083B8560077358
:1069C0002B680446DB68284698470730C00809F062
:1069D00035FA2061207B09F031FA60613046FFF71B
:1069E00081FFA068FFF7CEFD0023227B591CDBB29C
:1069F0009A4203D96269D0540B46F6E7A068FFF7C4
:106A0000C1FD0138C5B2FF2D1AD02946A068FFF795
:106A100024FEC0F38738B8F10103D3F1000858EB26
:106A200003080746294630464246FFF747FFB8F1BC
:106A3000000F02D06369FFB2DD55013DEDB2E2E720
:106A40002046BDE8F0810020BDE8F081A0AA010841
:106A50002DE9F8434B1C06460C46904606D1FFF73D
:106A6000BBFE4FF48071FFF7CBFD8419B8F1010F25
:106A70002ED9FFF7B1FE0368A51B9B689847B5FBAD
:106A8000F0F0804524D2FFF7A7FE03689B68984783
:106A9000B5FBF0F0E0B1FFF79FFEA6420546D0F847
:106AA0000C90876814D803689B689847B6FBF0F38E
:106AB00003FB106060B92B6828469B689847B4FBBD
:106AC000F0F303FB104018B9C7EB0907BC4202D929
:106AD0000020BDE8F883102009F0AEF96B68AA68C1
:106AE0004360084B164414448660C4600360DB684E
:106AF00007469847C8EB00013846FFF749FFBDE855
:106B0000F88300BF38AA0108F8B5002204460E46F3
:106B1000FFF7C6FD30B3A068FFF73BFD237BB6FB54
:106B2000F0F0C6B2B34201D80020F8BD6369A06896
:106B30009D5DFFF727FD854213D06369294698556F
:106B4000A668336830461F69FFF75AFD0146304694
:106B5000B8470028E8D004F1080029460022FFF7D2
:106B6000ADFE0120F8BD2DE9F84304460F469046DE
:106B700002F05DF905462068FFF704FDB5FBF0F66D
:106B800006FB10562068FFF7FDFC0023DAB28242B4
:106B900014D2F2B21A44B2FBF0F100FB1122D5B2CA
:106BA00005F0070E4FF0010C0CFA0EFEA168D21092
:106BB0008A5C013312EA0E0FE8D100E00546206836
:106BC0002946FFF74AFD4FF6FF7398420AD0266820
:106BD000294633683046D3F81090FFF711FD01467F
:106BE0003046C847012005F0070100FA01F1E368CB
:106BF000DD55A268EB10D05C0143D154B8F1000F11
:106C000005D02068294647F4FE42FFF739FD2846A3
:106C1000BDE8F883F8B5B1FBF2F6C36802FB1617BE
:106C20000446F6B200689D5DFFF7ACFC854205D1D5
:106C3000204631460122FFF796FF05462068294687
:106C4000FFF7DEFC02373844F8BD2DE9F8438946EA
:106C5000174611461A4605461E46FFF721FD88B124
:106C600055F8084F23682046D3F81480FFF791FCAD
:106C7000394602462846FFF7CDFF494602463346CD
:106C80002046C047BDE8F8832DE9F84389461746FA
:106C900011461A4605461E46FFF702FD88B155F813
:106CA000084F23682046D3F81880FFF772FC394656
:106CB00002462846FFF7AEFF4946024633462046C5
:106CC000C047BDE8F88338B5044654F8083B0D4684
:106CD0009B689847294602462046FFF79BFF38BD30
:106CE0002DE9F04F044685B000680E4603929B469E
:106CF000FFF74FFCB6FBF0F0E368C6B23146002266
:106D0000204613F806A0FFF72EFF804646F47F4288
:106D100041462068FFF7B4FC2068FFF73AFC514673
:106D200081462068FFF76CFC0230019041462068E4
:106D3000FFF766FC0230029000254D450FD20F9BF5
:106D40002068C5EB09079F4228BF1F46019A0368C8
:106D50000E99D3F818C02A443B46E047B0B92068E2
:106D6000414646F4FE42FFF78BFC20685146002264
:106D7000FFF786FC204651460022FFF79FFDB5EB4A
:106D800009035842584105B0BDE8F08F28465946DE
:106D90000E9A3B46DDF80CC0E0472068029A036873
:106DA0000E99D3F814C02A443B46E0470028D6D0B9
:106DB0003D44C2E72DE9F3411546002207460E4641
:106DC0009846FFF76DFC50B1089C07F1080000944D
:106DD000099C314601942A464346FFF781FF02B0E1
:106DE000BDE8F08113B5084C002100910A460B461E
:106DF000204602F0DBF80549054A204602B0BDE80E
:106E000010400EF0F1BC00BFC0040020ED5F000890
:106E10009413002013B5084C002100910A460B463C
:106E2000204602F0C3F80549054A204602B0BDE8F5
:106E300010400EF0D9BC00BFCC040020ED5F00086C
:106E40009413002010B5084C2368DB0709D42046B2
:106E500009F046F828B1054800F0E5FF204609F0A2
:106E600045F8024810BD00BF00140020F4130020B4
:106E700010B5142008F0E0FF044601F085F8034B3C
:106E800020461C60BDE8104001F0A5B8D4040020E5
:106E900008B5FFF7D7FF806800F0FDFAFFF7D2FFD3
:106EA00003681B782BB1034B1868BDE8084001F05C
:106EB00042B908BDD404002010B5084B04461A7925
:106EC00032B9012206484FF416511A7102F08CFAB9
:106ED00021460348BDE8104002F0B9B8D4040020B0
:106EE000F411002037B50B4C002104F108050B46C6
:106EF00000910A46284602F059F828460649074AF2
:106F00000EF072FC04F11000022103B0BDE8304025
:106F100001F026BAD4040020ED5F0008941300208D
:106F200008B5406803689B689847C00808BD08B565
:106F300040680368DB68984708BD00207047000080
:106F400010B5034B04460360FFF732FA204610BD2C
:106F5000D0AA010810B50446FFF7F2FF204608F05A
:106F60006FFF204610BD10B50468E469A04710BD4E
:106F700013B50A4602ABFF21046803F8011D194648
:106F8000A4690123A0479DF8070002B010BD037853
:106F90003BB10022D90702D45B080132FAE7805CDA
:106FA00070471846704770B50D78FF2D02D0002449
:106FB00001260AE0FF281EBFFE2348700B7013E075
:106FC0000134092C04D07600F6B22E42E3B2F7D099
:106FD000CC5CCE1804408442CC5405D022B9062B98
:106FE00004DC6D000D707070012070BD104670BD26
:106FF0002DE9F84307460E46154698461446621B8F
:1070000028F007039A420ED27A1B336822449A4230
:107010000BD373689A4208D22046FF2108220EF053
:1070200080FC0834EBE7BDE8F8832046FFF7AFFFAC
:10703000FF218146082220460EF073FC4846214677
:107040000022FFF7B0FFECE738B5036804469B6801
:107050000D469847B5FBF0F100FB11556068FFF74E
:10706000CFFA00EBC50038BD38B5446823681D6908
:10707000FFF7EAFF01462046A84738BD2DE9F04F4B
:10708000A3B006460F4601921D464FF0000BAB45DC
:1070900018D2019930465944FFF7D6FF81467068EF
:1070A000CBEB050A0368BAF1100F28BF4FF0100AA6
:1070B0004FEACA089C6902A94A464346A04708B15C
:1070C000002406E0BBEB05035842584123B0BDE85D
:1070D000F08F544508D002AB385D03EBC4010122A8
:1070E000FFF761FF0134F4E7706802A903684A46BC
:1070F000D3F814A043462744D0470028E2D0A34445
:10710000C5E72DE9F0478046A0B00F4692461E46DF
:107110000025B54217D205EB0A014046FFF794FF60
:107120000246D8F80400C5EB06090168B9F1100F52
:1071300028BF4FF010098C694FEAC9036946A04780
:1071400008B1002405E0AB1B5842584120B0BDE80F
:10715000F0874C4507D000AB03EBC400FFF717FFE7
:1071600038550134F5E727442544D2E72DE9F04F9F
:1071700089B09146139A129ED20805468A469846CF
:1071800005920024444563D2059AC4EB0803934258
:1071900038BF1A46D30004EB090128460492039332
:1071A000FFF752FF83466868314603685A469F6975
:1071B000039BB84700284BD053460027039A9A46B2
:1071C00097423AD201339AF80000F1190022029353
:1071D000FFF7E9FE029B00282DD16868314603685D
:1071E0005A46D3F814C03B46E04730B32B682846D4
:1071F0009B689847B9FBF0F303FB109004EBD704AE
:1072000020440690404407906868139A03680192EE
:1072100000961F6A4946124A06ABB84768B1139BED
:10722000009601932846514604EB0902C4EB08037B
:10723000FFF79CFF10E00837C0E768683146036835
:107240005A465F69039BB84710B1049B1C4499E7F9
:10725000B4EB08035842584109B0BDE8F08F00BFB5
:10726000F16F000810B5A2B002AC00948024019424
:10727000FFF77CFF22B010BD10B5044601F0D7FD2A
:10728000606301F0D4FDA063204610BD0C30704750
:1072900038B504460D4680680021FFF769FE0128D5
:1072A00007D1A0682946036800229C692823A047CB
:1072B00038BD002038BD08B5002228238068FFF7BC
:1072C00052FE08BD38B528220C4605460846002166
:1072D0000EF027FB012323700A2363801E23A37172
:1072E00028462146BDE83840FFF7E5BF10B500212C
:1072F00004468068FFF73CFE012804F10C0120469B
:1073000003D0BDE81040FFF7DDBFBDE81040FFF738
:10731000BFBF000073B528220446416000210C3035
:107320000EF0FFFA01230020237060704FF0FF3150
:107330000222FFF78DFB054668B1082008F07CFDAE
:107340000E4B064680E82800082008F075FD0C4B1F
:10735000466003600546A5602DB1204602B0BDE839
:107360007040FFF7C3BF074B042000931721064A64
:107370002B4602F02BFD284602B070BDD0AA0108B2
:1073800000AA010811AB0108877C010813B5084C5D
:10739000002100910A460B46204601F007FE0549F0
:1073A000054A204602B0BDE810400EF01DBA00BFED
:1073B000E8040020ED5F00089413002070B500F190
:1073C0000C0400F1980622460023111B04F10C0561
:1073D0001360536093604B550D446B70AB7004F1B8
:1073E0000F054B550D446B70AB7004F112054B55F6
:1073F00029444B708B701C3202F8073C22F8063C83
:1074000002F8043C02F8033CB242DDD170BD10B575
:1074100001600446FFF716FD03686360FFF712FD85
:107420008368A36010BD10B50446806800F03FF883
:1074300000F03BFDA06800F038F8BDE8104000F017
:107440003BB9000037B5104C00252B4629462A468B
:107450000095204601F0AAFD20460C490C4A0EF08A
:10746000C3F9FF238C2225726372A572E372237322
:107470006573A373E27325746374A574E57425754D
:107480006575A57503B030BDF0040020ED5F000800
:1074900094130020704710B50446406800F087FC44
:1074A000A068BDE8104000F044BD406870478068A7
:1074B000704773B504461C2008F0BEFC0A2506463A
:1074C00000F03FF80B211122022366603046009540
:1074D00000F064F8182008F0AFFC064600F0D4FC79
:1074E0003046042103222B46A66002B0BDE870405E
:1074F00000F0E4BC0022016042608260FFF7D9BF67
:1075000013B5084C002100910A460B46204601F0B5
:107510004DFD0549054A204602B0BDE810400EF079
:1075200063B900BF08050020ED5F00089413002038
:1075300038B504460D4601F07AFC401B2060204619
:1075400038BD10B5044601F072FC6060204610BDE5
:1075500038B5002505604560856005734573857302
:10756000C573057445748574C57405754575C58204
:107570000576457680F8205080F82150458480F8C3
:107580002450044601F053FC84F82C50A06284F887
:107590002D5084F82E502563204638BD2DE9F0414A
:1075A000044610200D4690461F4608F045FC424612
:1075B0003B4606462946FEF729FDC821304626618E
:1075C000FEF73AFE2069FEF735FD2069FEF740FD23
:1075D0003420684308F032FC6F1E804606467B1C50
:1075E0000AD03046002134220EF09BF93046FFF7D6
:1075F000AFFF3436013FF2E7069B0021A36020462F
:107600000123C4F814802173258300F8043BFFF79D
:107610008FFFBDE8F08107B5038B8B4208D9006965
:10762000FEF7F8FDC0F30741C0F30722C3B202E042
:1076300000231A461946002061F3070062F30F2069
:1076400063F3174003B05DF804FB37B50192038B79
:1076500004468B420D4612D99DF805109DF8062070
:107660009DF80400FEF7D1FD294602462069FEF789
:10767000B3FD206903B0BDE83040FEF7E9BC03B0BC
:1076800030BD07B500238DF804308DF805308DF836
:107690000630019AFFF7D9FF03B05DF804FB38B557
:1076A000054600242B8B9C4205DAA1B22846FFF741
:1076B000E8FF0134F6E738BDF8B50546FFF7EFFF00
:1076C000686908B108F0BEFB2E8B3420704308F0C7
:1076D000B5FB013E07460446731C0AD02046002134
:1076E00034220EF01EF92046FFF732FF3434013EFB
:1076F000F2E76F61F8BD0A6802604A6842608A6812
:1077000082600A7B02734A7B42738A7B8273CA7BE4
:10771000C2730A7C02744A7C42748A7C8274CA7C7A
:10772000C2740A7D02754A7D4275CA8AC2820A7E87
:1077300002764A7E4276CA69C26191F8202080F8BA
:10774000202091F8212080F821204A8C428491F851
:10775000242080F824208A6A826291F82C2080F804
:107760002C2091F82D2080F82D2091F82E2080F8E3
:107770002E200A6B0263704782B0F7B508AE86E828
:107780000C00038B04468B420D469DF82C709DF82F
:107790002D609DF82E2049D99DF83C3033B1FFF77C
:1077A0003AFFC7B2C0F30726C0F3074263690999DD
:1077B000342000FB053309B1012000E0032083F8E9
:1077C0002C0034235D43D4F814E008980EEB050335
:1077D0004EF805009A739DF82F205960DA739DF8D2
:1077E00030200A991A749DF8312099605A749DF8D6
:1077F00032201F739A749DF833205E73DA749DF8FB
:10780000342000211A759DF835205A75BDF83620B0
:10781000DA829DF838201A769DF839205A76606908
:1078200028442830FFF784FE0023237303B0BDE80B
:10783000F04002B0704770B510460C464FF07C51D6
:107840001D46FEF7EDF901462046FEF79DFA4FF082
:107850007E51049E0446FEF781FB48B14FF07C51F7
:107860003046FEF7DDF92146FEF7DAF921461BE046
:1078700020464FF07E51FEF7C9F84FF07C51044688
:1078800006F10040FEF7CCF94FF080410646204655
:10789000FEF7BCF801462046FEF7C2F94FF07E51D4
:1078A000FEF7B4F801463046FEF7BAF92946FEF76E
:1078B000AFF870BD10B5018B00239AB28A4209D28D
:1078C0004269342404FB032292F82C200133002A5D
:1078D000F3D001E00723037310BD00002DE9F04F42
:1078E0008BB09DF850A09DF854700790CAEB07002C
:1078F000039115461C46FEF73FF99DF851909DF8FF
:1079000055600490C9EB0600FEF736F99DF85280E9
:107910009DF856B00590C8EB0B00FEF72DF90399C2
:10792000069002296ED004D8002930D001295AD0FF
:10793000DFE0092900F0A380102940F0DA805046EA
:10794000FEF716F9049A0346294600920798224644
:10795000FFF771FFFEF72AFBC7B24846FEF708F9AA
:10796000059A03462946009207982246FFF763FFCF
:10797000FEF71CFBC6B24046FEF7FAF8069A03462D
:107980000092079829462246FFF755FF72E02946E4
:107990000498FEF745F92146FEF7F6F906465046EB
:1079A000FEF7E6F801463046FEF732F8FEF7FEFA3B
:1079B0002946C7B20598FEF733F92146FEF7E4F9E8
:1079C00006464846FEF7D4F801463046FEF720F852
:1079D000FEF7ECFA2946C6B20698FEF721F92146D1
:1079E000FEF7D2F93EE021462846FEF7CDF94FF0EA
:1079F0007C51FEF7B3FA002800F08C80C3464E4657
:107A0000574687E021462846FEF7BEF90446214640
:107A10000498FEF705F92146FEF702F9054650469F
:107A2000FEF7A6F801462846FDF7F2FFFEF7BEFA7C
:107A30002146C7B20598FEF7F3F82146FEF7F0F8A5
:107A400005464846FEF794F801462846FDF7E0FF54
:107A5000FEF7ACFA2146C6B20698FEF7E1F82146D9
:107A6000FEF7DEF804464046FEF782F8014620465F
:107A7000FDF7CEFFFEF79AFA5FFA80FB4AE0214657
:107A80002846FEF781F94FF080410446FDF7BEFF1E
:107A9000049A0546214602F10040FEF7C1F8294646
:107AA000FEF7BEF806465046FEF762F8014630463D
:107AB000FDF7AEFFFEF77AFA059B2146C7B203F148
:107AC0000040FEF7ADF82946FEF7AAF806464846FC
:107AD000FEF74EF801463046FDF79AFFFEF766FACC
:107AE000069A2146C6B202F10040FEF799F82946EF
:107AF000B6E7169B01221A700B4B019100930220EE
:107B00004FF40D71094A002302F060F94FF0000BA9
:107B10005E465F46002067F3070066F30F206BF3B5
:107B200017400BB0BDE8F08F2AAB0108C27C0108FA
:107B30002DE9F04F044697B00027238B9F4280F237
:107B4000308134257D4366692E4496F82C30012B14
:107B500007D101F06CF96369B26A2B44801A5A6844
:107B600008E0022B14D101F062F96369B26A2B4478
:107B7000801A9A689042C0F0128103F12800002117
:107B8000FFF7D6FC63691D44032385F82C3006E11A
:107B9000032B40F0048196F82E90B9F1000F40F0CD
:107BA000FE80717D0DF1580808F8359D069101F0B1
:107BB0003EF9B36AD4F814B0C01AFDF7D9FF0246F3
:107BC0005BF805000792FDF7D3FF0BEB050ADAF827
:107BD0000C308646ADF800301B0C8DF80230534651
:107BE00033F8120F06999B78079AADF804008DF8C8
:107BF0000630CDF8088073462046FFF76FFEC0F3CD
:107C000007238DF82530C0F307438DF826308DF813
:107C10002400F0739DF825301FFA87F833749DF81F
:107C20002630737463695E1901F001F96269B16A03
:107C300053195259401A9042C0F0A780D97C1A7D3E
:107C4000987CFEF7E2FA414602462069FEF7C4FA44
:107C50006069494628442830FFF76AFC63692B4471
:107C6000DA8A002A31D0013ADA8263692B445A7EDB
:107C7000EAB19E7C187B1E73DE7C597B5E731E7D91
:107C80009A7B9E7363692B44D97498741A756269E0
:107C90002A44537D991EC9B2062901D8073305E04D
:107CA000A3F10901C9B2062901D8073B53756369DD
:107CB0002B449A68002A72D0022283F82C20636930
:107CC0001D44062385F82D3069E0997C1973D97C11
:107CD0005973197D9973636907212B4483F82D101B
:107CE00063692B4493F82010002948D093F82110A1
:107CF000013183F8211066692E4496F8213096F8F8
:107D00002010994206D9F1694FF01C0E0EFB031E9C
:107D1000059214E0738C03B3013B73846369002202
:107D20002B4483F8212063694FF01C0E1D44EB693E
:107D300095F821200EFB023E95F8243005936D4600
:107D40000EF108060FCE0FC5336820462B609EE863
:107D50000C004146FFF710FD21E00021342209A864
:107D60000DF0DFFD09A8FFF7F3FB304609A9FFF787
:107D7000C2FC63691D44082385F82D3001E083F8B7
:107D80002C102046FFF796FD09E0197C5A7CD87B21
:107D9000FEF73BFA414602462069FEF71DFA01371D
:107DA000CBE62069FEF754F917B0BDE8F08F10B5A7
:107DB000037804466BB101F03AF86368A268C01A10
:107DC000904206D32046FFF7B3FE201D0021FFF7A7
:107DD000AFFB10BD13B5084C002100910A460B46BD
:107DE000204601F0E3F80549054A204602B0BDE807
:107DF00010400DF0F9BC00BF10050020ED5F000839
:107E00009413002070B5044600680D46FFF782FA0F
:107E100029460646A068FFF76DFB60682946FFF714
:107E2000F6FA304670BD38B504463C2008F004F838
:107E30000546FFF721FA2560982007F0FDFF05466B
:107E4000FFF7BCFA65600C2007F0F6FF0546FFF768
:107E500021FBA560204638BD13B5084C00210091D8
:107E60000A460B46204601F0A1F80549054A20467E
:107E700002B0BDE810400DF0B7BC00BF18050020EF
:107E8000ED5F00089413002010B5044600F0CFFF0A
:107E9000A060204610BD007CD0F1010038BF00205A
:107EA00070478078012100F096BF01220274002201
:107EB00042748274C2740275FFF7F3BF10B50446B2
:107EC0004360417082700846022100F073FFA07881
:107ED000002100F06FFF012323702046BDE8104011
:107EE000FFF7E3BF38B5044600F0A1FF0546607810
:107EF00000F08AFF227CC0B2904205D008B9E5604C
:107F000002E000212175A17400216174E174E1682F
:107F10006D1AB5F5FA6F34BF0025012518B935B1D2
:107F20000122E27403E012B90DB9012262742074D7
:107F300038BD10B50378044663B100F078FFA3683C
:107F40006268C01A904205D32046FFF7CBFF00F0CD
:107F50006EFFA06010BD000013B5084C0021009119
:107F60000A460B46204601F021F80549054A2046FD
:107F700002B0BDE810400DF037BC00BF2005002066
:107F8000ED5F0008941300207047000007B5084B10
:107F900086210093027B074B012003EBC2035B6841
:107FA000054A0193002301F011FF03B05DF804FBC3
:107FB00037AB010804000020297D010838B50446CC
:107FC0000D46017BFFF7E2FF257320462946BDE8F9
:107FD000384000F003B80221FFF7F0BF37B5294B56
:107FE0000D460093027B284B044603EBC2035B68FB
:107FF000012001933421254A002301F0E7FE022DE0
:1080000019D1FEF71FFF2146FFF7FCFE30B92046CD
:10801000012103B0BDE83040FFF7D0BFFEF712FFEB
:1080200003682360FEF70EFF43686360FEF70AFFF4
:108030008368A36024E0032D0AD16068FFF7F3F999
:1080400000F00AFBE0B103B0BDE8304000F040BAF8
:108050002B1FDBB2012B13D9062D07D100F0E7FE51
:10806000206103B0BDE8304001F03CB8012D07D1DC
:10807000074B042000935121044A002301F0A6FE7F
:1080800003B030BD45AB0108040000205F7D01084E
:1080900054AB010838B5044600680D46FFF7F6F802
:1080A0008379DB0908D123685B782BB901F094FA56
:1080B00010B1022D2ED101E0022D33D1A068FFF7BF
:1080C000F6F9FFF7E8FE78B12068FFF7DFF805461C
:1080D0002068FFF7DBF88279AB79C2F3C01282F037
:1080E000010262F3C713AB712068FFF7CFF8837901
:1080F000DB090CD101F0C0F901F06EFA38B1236848
:1081000001225A7000F0A8FA08B900F0B5FA20462A
:1081100003210BE0236801225A7000F09DFA08B990
:1081200000F0AAFA032D05D120460421BDE838400D
:10813000FFF744BF38BD017BFFF7ACBF13B5084C58
:10814000002100910A460B46204600F02FFF05490A
:10815000054A204602B0BDE810400DF045BB00BF07
:1081600028050020ED5F00089413002013B5084C8B
:10817000002100910A460B46204600F017FF0549F2
:10818000054A204602B0BDE810400DF02DBB00BFEF
:1081900030050020ED5F000894130020002100F05E
:1081A00004B80E4B5B58435004310D480D4B421838
:1081B0009A42FFF4F6AF0C4A00F003B8002342F8ED
:1081C000043B0A4B9A42FFF4F9AF09F0BDF906F0FF
:1081D000C9FD07F015FE06F03FFE7047F4B6010832
:1081E000000000209C0400209C040020781E002039
:1081F000FFF7FEBF014B1878704700BF380500201D
:10820000064B0246582000FB013101F1080303CB65
:108210001060516018689060704700BF38050020FA
:10822000014B93F86401704738050020064B024665
:10823000142000FB013101F5B67303CB10605160CF
:1082400018689060704700BF3805002038B50546B3
:10825000064C28B101F048FE012384F8303238BDC5
:1082600001F076FE84F8305238BD00BF380500209A
:108270002DE9F0410D4B804693F864710024BC4217
:1082800011DA14256543094E414606F5B6702844B7
:108290000C220DF0F8FC20B93544D5F86801BDE892
:1082A000F0810134EBE70020BDE8F08138050020C3
:1082B000064B10B50022C3F8342207F055F80446E7
:1082C000E72001F04DFE204610BD00BF380500201C
:1082D0002DE9F04788B0804668460D4600F060FF03
:1082E0001E4B002493F800A054452DDA55B35826B0
:1082F00066431A4F414607F1080030440C2207F14B
:1083000004090DF0C0FCE8B928460DF0B4FC06F1F4
:108310001003402834BF02464022294609EB0300DF
:108320000DF0DBFA3E44012386F85830694604A874
:10833000746800F057FF04A8A047044604A800F0A2
:10834000EDFE03E00134CFE74FF0FF34684600F064
:10835000E5FE204608B0BDE8F08700BF38050020E4
:1083600001290AD002D3022910D070470C4B0022F9
:1083700083F8382201220B4B10E0094B002283F8CE
:108380003812084B1A70084B19707047044B0022C2
:1083900083F83812034B1A70034B01221A7070478E
:1083A000380500205700002029120020014B93F8C7
:1083B000380270473805002038B5124C0546BCB16C
:1083C00006F0CAFF01462846AFF30080044648B1D4
:1083D0000D49284600F050FE642000F02DFD06F007
:1083E000C5FF0CE0094B1870094BC3F8340206E0D6
:1083F000084900F041FE2846074900F03DFE2046AE
:1084000038BD00BF00000000AFAB01081A12002009
:1084100038050020DDAB010813AC010838B5084B66
:10842000044693F839221D46824207D010B101F06C
:108430005BFD01E001F08CFD85F8394238BD00BFDD
:108440003805002008B5084A1378022B05D100230F
:108450001370064AC2F8343201E006F087FFBDE827
:1084600008400020FFF7DABF1A120020380500206C
:1084700008B5084B93F8393253B142EA012141EA79
:10848000004001F015FDBDE80840E72001F044BDC3
:1084900008BD00BF380500200246C2F30721C0F323
:1084A0000740D2B2FFF7E4BF73B5002B0CBF6523C2
:1084B000452306460D461446009331462A46234678
:1084C000024802F0A5F902B070BD00BF7407002099
:1084D000014802F0E7B900BF7407002073B51B4DD7
:1084E0001B4ED5F8A40B06F0E7FF431E5C425C412F
:1084F000D4B1184B184A0093D5F8A43B022001933D
:108500004FF4D071002301F061FCD5F8A43B326830
:10851000934209D0114A02208DE80C004FF4D27129
:108520000D4A002301F052FCD5F8A42B33689A427F
:1085300009D10B4B022000934FF4D471064A00235B
:1085400001F044FC0124204602B070BD3805002033
:1085500048A5010858AC0108987D010899AC0108AC
:10856000CBAC010837B5114B05461B780C467BB9DF
:108570000F4B1B7863B9FFF7B1FF48B90D4B294684
:10858000D3F8A40B224603B0BDE8304006F09FBFED
:10859000094B0220009340F2EF11084A002301F03A
:1085A00015FC4FF0FF3003B030BD00BF2812002093
:1085B0002912002038050020E9AC0108B17D01082E
:1085C00073B51E4B05461B780E462BB91C4B1B780A
:1085D00013B9FFF783FF58B11A4B0220009340F202
:1085E000FF11194A002301F0F1FB4FF0FF3023E0A7
:1085F000164B174C1B78012B03D1164B1B78012B04
:108600000DD1294632460023D4F8A40B06F0FAFE19
:10861000C4F8A80B00F00BFCC4F8AC0B0AE0D4F8CB
:10862000A83B002BEDDC00F002FCD4F8AC3BC01AF8
:108630000A28E6D8D4F8A80B02B070BD2812002092
:1086400029120020E9AC0108E07D01081912002080
:10865000380500201A120020054B1B7803F0FF009C
:1086600023B1044B1878003018BF0120704700BFB9
:10867000181200201912002008B500F0B5FF024BB7
:1086800001221A7008BD00BF5700002070B50C46CB
:1086900012491646054600F083FD2644B4421BD01D
:1086A00014F8013B28461B0903F13001392984BF26
:1086B00003F15701C9B200F0B7FD14F8013C284698
:1086C00003F00F0303F13001392984BF03F157018F
:1086D000C9B200F0A9FDE1E7284670BDD6AF010898
:1086E000B0B50546002000AF014607F071FBC31D81
:1086F00023F00703ADEB030D04462146684607F05F
:1087000067FB284669462246FFF7C0FF2846BD465C
:10871000B0BD000070B5044601200D461646FFF7B7
:108720007DFE4FF0FF10FFF7B7FE064BE4B21C7062
:10873000054B0022C3F8342228463146BDE870407C
:1087400006F010BE1A1200203805002003460A4623
:1087500002201946FFF7DEBF10B506F0FDFD044606
:1087600006F0FDFD21460246BDE810400120FFF75E
:10877000D1BF00002DE9F041ADF57A7D2B4802AF65
:1087800001F069FC054600284AD1294B07F1540045
:10879000FB62284B07F5BE763B63274B78607B6313
:1087A000264B3E60BB63264BE846FB63254B07F137
:1087B00008043B64244B7B64244BBB64244BFB6464
:1087C000244B3B65244BBB60244BFB60244B3B613B
:1087D000244B7B61244BBB61244BFB61244B3B62EC
:1087E000244B7B62244BBB6206F0F8FD304606F05A
:1087F000F7FD2946284607F0EBFAC1B2CB1D03F47A
:10880000FC73ADEB030D02AD284607F0E1FA0094CE
:10881000064829463A4607F12C0301F023FCC546D9
:1088200007F57877BD46BDE8F08100BF74070020EA
:1088300065850008C18500084D8700085987000834
:1088400045840008E1ED0008B18200084D8200086F
:1088500031F50008A5920008F581000801820008A2
:10886000D1820008218200082D820008918C000826
:1088700071820008D5F30008D9F30008014802F01E
:108880001DBC00BF7407002010B5064C23783BB117
:10889000FFF7F4FF20B9044B1870044B18702070D8
:1088A00010BD00BF181200201A120020191200205B
:1088B000F0B502208DB0014602AF112206F003FE92
:1088C000041E6E462EDB0020014607F081FAC1B27D
:1088D000CB1D03F4FC73ADEB030D02AD284607F08E
:1088E00077FA294607F1140001F015FD0223BB8039
:1088F0001623BB7101223323FB71BA72E023BB2222
:108900003B72FA7200233A1D7B7200921022019290
:1089100007F114011322204606F0DEFD204606F082
:10892000D0FDB5462C37BD46F0BD000013B50F484D
:1089300001F094FB0D4802F04CF8044690B9FFF7A3
:10894000B7FF0A4801F0AEFF084801F05FFE684635
:10895000082106F093FA28B9054869463C2201230C
:10896000FFF7A2FD204602B010BD00BF7407002033
:1089700022AD010810B50F4C94F8B03B1BB1013B80
:1089800084F8B03B10BD0C4AD4F8B43B02EB83032F
:10899000586F01F08DFAE72001F0BEFA642384F8E5
:1089A000B03BD4F8B43B0133062BC8BF0023C4F856
:1089B000B43B10BD38050020987D01082DE9F04139
:1089C000304B86B000930220002340F2FA212E4A59
:1089D00001F0FCF901210622022006F074FD2B4B68
:1089E00004468DE8180002204FF43F71264A002308
:1089F00001F0ECF9002C40DB3523022600258DF830
:108A00000B304FF4FA5008238DF80C308DF80D30F0
:108A10008DF80E308DF80F30ADF808608DF80A50E3
:108A200006F0E8FF1A4B8046009330462B4640F292
:108A30001231154A01F0CAF902A91022204606F0A7
:108A4000DEFC144B07464FF445710F4A8DE8880051
:108A500030462B4601F0BAF9404606F0CBFF0E4BEC
:108A60003046009340F21D31074A2B4601F0AEF923
:108A7000204606F026FD384601E04FF0FF3006B0F4
:108A8000BDE8F0813DAD0108287E010844AD010834
:108A90005BAD010863AD01087BAD010873B5154BF3
:108AA000154C00932246022040F26F31002301F062
:108AB0008DF9124B124E224600934FF45E71002343
:108AC000022001F083F9D6F8A40B06F0FAFC0D4B56
:108AD00005468DE82800022040F27A312246002324
:108AE00001F074F9084B28461B68C6F8A43B02B095
:108AF00070BD00BFD6AF01083C7E01087BAD010808
:108B00003805002081AD010848A50108F0B5474BA4
:108B1000ADB0474C0093D4F8A43B40F22731454A0E
:108B200001930220002301F051F9FFF7B7FF012163
:108B30000622022006F0C7FC3F4BC4F8A40B40F20B
:108B40002E31009301903B4A0220002301F03EF9B0
:108B50000223ADF80C3016238DF80E300BA833230A
:108B60008DF80F3006F02AFC002302939DF82C307C
:108B700026463BB1012B14D0304B07AC03F1100754
:108B8000224602E00C9B029310E0186859682546C3
:108B900003C50833BB422C46F7D10FCA0CAC84E89E
:108BA0000F000A25029B0BB9013D04D1029B63B95A
:108BB000234B029309E00CA87E210DF07AF802AA5B
:108BC00081B20CA806F066FBECE7029B4FF4FA506A
:108BD0001A0E8DF810201A0C8DF811201A0A8DF833
:108BE00012208DF8133006F005FF164B0546009352
:108BF0000220002340F265310E4A01F0E7F803A994
:108C0000D6F8A40B102206F0FAFB0F4B04468DE8B1
:108C1000180040F26731074A0023022001F0D6F81D
:108C2000284606F0E7FE20462DB0F0BD92AD0108C3
:108C300038050020537E0108A6AD0108D3AD010818
:108C400004E5D0365BAD0108BEAD01082DE9F04169
:108C50000E4B804693F864710024BC4211DA14254F
:108C600065430A4E414606F5B67028440C220DF0C5
:108C70000AF820B9354495F87801BDE8F08101344F
:108C8000EBE74FF0FF30BDE8F08100BF3805002072
:108C900008B5FFF7DBFF0138082804D8034B184458
:108CA00090F8CF0008BD022008BD00BF987D0108E4
:108CB0002DE9F04705460E4692461F4600F0B7F8EC
:108CC000002481463FB100F0B2F8C9EB0000B84281
:108CD00001D9BDE8F0872B6828461B699847002812
:108CE000F0DD2B6828465B6998475445C1B203D133
:108CF00000233370BDE8F0870D29F9D00A29F7D099
:108D0000082901D07F2905D1002CDBD006F1FF38DE
:108D1000013C03E006F10108317001342B6828465C
:108D20009B68E4B298474646CCE7000037B50C4C48
:108D3000002104F6B8350B4600910A46284600F09B
:108D400035F90849084A28460CF04EFD04F50F7025
:108D500001F06CF9054B1B68C4F8A43B03B030BDAF
:108D600038050020ED5F00089413002048A5010895
:108D700010B5044600F0B8F930B1A4F10D039BB270
:108D8000022B01D8002010BD00F0DEF808B1012C44
:108D9000F8D9074800F0D6FA38B1A4F1120080B231
:108DA000012894BF0020012010BD012010BD00BF8C
:108DB00058110020142838B504460D460AD8FF295A
:108DC00008D0FFF7D5FF28B120462946BDE8384036
:108DD00006F09EB838BD38B504460D4606F08CF84E
:108DE000FF2810D0421ED2B2022A0CD9062800D188
:108DF00038BD2046FFF7BCFF28B120462946BDE814
:108E0000384006F0F3B838BD10B5044606F074F8E3
:108E10000438C0B2012808D92046FFF7A9FF20B1C5
:108E20002046BDE8104006F0FBB8002010BD06F05B
:108E30007FBB06F06DBB000030B54FF47A7385B090
:108E4000174C0093236805460344236006F070FB2B
:108E5000019005F0FFFF06F06BFB0290029A019B68
:108E6000D31A0393039B039BAB4216D20D4B1B7883
:108E7000002BEED1039A009B9A4203D22368B3F5EC
:108E80007A7FE6D3039B03F57A73009300F088FCA6
:108E9000054B1B78002BF9D1DBE705B030BD00BFD7
:108EA00024120020291200201A12002013B5084CA9
:108EB000002100910A460B46204600F077F805494C
:108EC000054A204602B0BDE810400CF08DBC00BF42
:108ED000FC100020ED5F000894130020F8B5054653
:108EE00016460C468F18BC4206D02B6828469B6855
:108EF00014F8011B9847F6E73046F8BD014B0360B4
:108F0000704700BFB87E010810B5034B04460360EC
:108F100006F096FF204610BDB87E0108084606F010
:108F2000CFB806F0E3B806F0E9B806F0F7B806F0F7
:108F300003B90000002242604FF47A728260014A55
:108F400002607047787E010806F0F8B810B5054C4D
:108F50002046FFF7EFFF20460349044ABDE81040D2
:108F60000CF042BC04110020FD8E00089413002078
:108F70002DE9F041002407460E4625463B19197994
:108F80000A22304600F0ACF82E218046304600F030
:108F900062F801344044032C0544EFD13046F9799E
:108FA0000A2200F09DF82844BDE8F08130B58371B5
:108FB000034D9DF80C30056001714271C37130BDE5
:108FC000A07E01080548064B06490360064A0023B7
:108FD000037143718371C3710CF006BC141100203E
:108FE000A07E0108ED5F000894130020014B036090
:108FF000704700BFB87E0108F8B506460C468F18CA
:109000000025BC4207D0336830469B6814F8011B2A
:1090100098470544F5E72846F8BD000010B5034B16
:109020000446036006F00CFF204610BDB87E010820
:1090300038B505460C46084641B10CF01CFE2B68BD
:109040000246DB6828462146984738BD38BD08B53A
:10905000FFF7EEFF08BD08B503689B68984708BD99
:1090600038B50D210546FFF7F6FF0A2104462846CC
:10907000FFF7F1FF204438BD38B50446FFF7D8FFAD
:1090800005462046FFF7ECFF284438BD30B50023E5
:109090008BB08DF82430012A98BF0A220DF12304E9
:1090A000B1FBF2F303FB1211CDB2092D94BF3035A1
:1090B0003735EDB2214604F801590BB11946EFE7F7
:1090C000FFF7B6FF0BB030BD10B522B90268C9B2C8
:1090D0009268904710BDD2B2BDE81040FFF7D6BFEE
:1090E000FFF7F2BF0CF0BEBC06F000BA13B5084C97
:1090F000002100910A460B462046FFF757FF05491D
:10910000054A204602B0BDE810400CF06DBB00BF20
:109110001C110020ED5F00089413002010B50446D8
:1091200000680CF0B5FB204610BD10B50446006881
:1091300008B10CF0ADFB00232360A360636010BD99
:1091400038B504460D46006801310CF0EFFC10B153
:1091500084E82100012038BD10B50368044613B12E
:1091600043688B4207D22046FFF7EAFF20B1A3688D
:109170000BB922681370012010BD70B50E46114660
:1091800004461546FFF7E8FF18B92046FFF7CDFF64
:1091900004E0A560206831460CF065FD204670BDF6
:1091A00038B50023044603604360836003730D46B3
:1091B00039B108460CF05FFD294602462046FFF70C
:1091C000DCFF204638BD884210B50B46044607D068
:1091D000096819B19A68FFF7D0FF01E0FFF7A5FF12
:1091E000204610BD10B50023044603604360836031
:1091F0000373FFF7E8FF204610BD70B5044685688D
:109200000E4609B9002070BD62B115442946FFF72A
:10921000A3FF0028F6D02068A368314618440CF05C
:1092200022FDA560012070BD07B500238DF8041054
:10923000012201A98DF80530FFF7DFFF03B05DF8CB
:1092400004FB000010B5164C94F92C3033B394F89D
:109250002D301BB306F0C6F894F82C3094F82D107E
:109260005AB2002A91FBF2F206DD012A0BDC013B27
:1092700084F82C30002307E0013204DB013384F84A
:109280002C30022300E0012394F82D201844013AE9
:1092900084F82D20BDE8104006F0A6B810BD00BF30
:1092A0002811002010B5044606F09CF8001B00F1C0
:1092B0007F02FE2A04D92046BDE8104006F094B88B
:1092C000054A80EAE073A3EBE0735B0082F82C00B0
:1092D00082F82D3010BD00BF28110020014B036023
:1092E000704700BFB87E010810B5034B0446036009
:1092F00006F0A6FD204610BDB87E0108007C06F0F1
:1093000015BA007C06F03ABA007C06F01DBA007C63
:1093100006F048BA007C06F087B9000010B5044694
:10932000002060604FF47A70A060054821742060CE
:10933000084611461A4606F053F9204610BD00BFF4
:10934000D07E0108007C06F04DBA000010B5084C34
:10935000002104F11402204604F15603FFF7DEFF5A
:1093600020460449044ABDE810400CF03DBA00BF55
:1093700058110020DD92000894130020704700006F
:10938000014B0360704700BFB87E010810B5034B66
:109390000446036006F054FD204610BDB87E010867
:1093A000002006F089BA012006F086BA08B506F05A
:1093B0006FFA08BD08B5084606F0A2FA012008BDFC
:1093C000002242604FF47A728260014A0260704764
:1093D000F87E010808B5002006F052FA014B002281
:1093E0001A6008BDF011002038B5064D0C462B68F8
:1093F0008B4205D0FFF7EEFF204606F041FA2C60C5
:1094000038BD00BFF011002010B5054C2046FFF715
:10941000D7FF20460349044ABDE810400CF0E4B9E8
:10942000F41100208193000894130020704700007D
:10943000054B1B7803F0FF0023B1044B1878003074
:1094400018BF0120704700BF301200201612002004
:1094500008B5FFF7EDFF48B1054B01221A70054B27
:1094600000221A70BDE8084006F065BB08BD00BFC9
:10947000391200205700002038B50B4C237803F038
:10948000FF057BB906F0FAFA084A0123237015702C
:10949000074AFF20137000F005FDBDE83840E720C3
:1094A00000F03ABD38BD00BF301200202912002064
:1094B0005600002010B5104B1A781C46D2B106F0A9
:1094C000F1FA0E4A117801F0FF0019B90123137067
:1094D0000B4B18700B4B002222701A700A4B0122A2
:1094E0006FF07F401A7000F0DDFCBDE81040E7200F
:1094F00000F012BD10BD00BF301200202912002064
:10950000570000201612002056000020084B1B7840
:1095100003F0FF0053B1074B1B7833B9064B1878A3
:10952000D0F1010038BF002070470020704700BF15
:109530001C12002055000020540000202DE9F047A7
:109540001F46234B88B01B78804689461446109EE0
:10955000002B39D01378002B34D0012E06D11D4BAF
:109560001B7803F0FF055BB100E05446F6B20096AD
:1095700040461FFA89F12246BBB206F0E7FA23E023
:1095800010460CF078FB0DF1100A470829465046AA
:109590000E228DF80E500CF0C4F9BD4204F1020405
:1095A000E3D014F8023C03A88DF80C3014F8013C09
:1095B000002110228DF80D300CF014FC0AF8050083
:1095C0000135EAE71E46D1E708B0BDE8F08700BFE5
:1095D000301200205500002008B506F013FAD0F133
:1095E000010038BF002008BD10B5FFF721FF044679
:1095F00038BB144B187006F037FA134B01221A705F
:10960000124B1C7006F054FA08B106F00DFB104B1B
:109610001B784BB9FFF7E0FF30B90E4B01221A70EF
:10962000BDE8104006F060BA0B4B00224FF47F40BB
:109630001A7000F037FCE72000F06EFC06F04EFADE
:10964000EEE710BD39120020301200202912002050
:10965000381200201C1200205600002008B506F029
:10966000D5FAD0F1010038BF002008BD37B50B4C4A
:1096700000210B4D0B4600910A462046FFF796FC51
:109680002A46204607490CF0AFF8074904F10800C4
:109690002A4603B0BDE830400CF0A6B80412002002
:1096A00094130020ED5F00082D9400080A4BF7B5D5
:1096B000164601220C461A7005460CF0DCFA0746E5
:1096C00020460CF0D8FA0096034639462846224632
:1096D000FFF734FF03B0F0BD5400002070B5254CF7
:1096E000254D00239EB0FF206B7023702B7063709C
:1096F000A370E37023716371A371AB7000F0D2FBB0
:10970000E72000F009FCFFF7A3FEFFF7B5FE06F027
:1097100097FA6846194900F023FAFFF7F7FEC8B137
:10972000E3796BB11A26013E06D0E72000F018FC61
:10973000322005F0B3FBF6E7FFF790FFE671ECE7A8
:10974000E72000F00DFCFA2005F0A8FB684600F0C9
:109750003DFAE2E7E72000F0DFFB06F085FA6B78E0
:109760000BB106F0FBFAFFF73FFF002323721EB098
:1097700070BD00BF1412002054000020AD960008F8
:1097800008B5064BD86006F089FAFEF70FFE08B957
:10979000FFF72AFFBDE80840FEF7ECBF14120020D7
:1097A00073B59B4C05F056FB00232361237D43B921
:1097B000637D33B9A369EBB1FFF739FBA369984225
:1097C00018D3237F924DEBB1924B02200093C4211A
:1097D000914A002300F0FAFA00236B70AB61AB7082
:1097E0002B622B752B772B716B71AB716B77FFF73E
:1097F00061FE07E0237F864D23B995F82430FBB145
:10980000FFF7F2FE237A824D13B1FFF767FF06E000
:1098100095F824301BB1AB7803F0FF06DBB1237859
:109820007B4D012B05D1AB78012B02D16B78012B3D
:1098300019D0A378764DDBB16B7D002B6ED017E08D
:1098400095F82530002BDBD1FFF7F1FA00F5EA405F
:109850003030A861D4E7AE61FFF7FAFD06F048FAB0
:1098600085F82460DBE706F007FA00232B70E0E7B9
:1098700094F8263023B1694800213A220CF051F8BF
:10988000674BDA781E463AB92379002B52D1604BE8
:109890005B79002B4ED1B9E0A2785D4BBAB15A7D0D
:1098A000AAB91A79002A59D011E006F033FA002536
:1098B0004FF6FF70B57000F0F5FAE72000F02CFBD2
:1098C000FFF724F9A84267DB25620123237123797E
:1098D0004F4D002B00F09A806B79BBB9FFF726F84B
:1098E000002811D002DA4FF47F0007E0012801D1EF
:1098F0004C4803E0022803D14FF0FF1000F0D2FAE9
:10990000E72000F009FB01E001236B71A379002B34
:1099100077D1FEF74BFD022873D177E095F826301A
:10992000002BADD1642005F0B9FA05F1260006F050
:1099300007FAA5E7FFF7B2F80023A371637123715B
:1099400094F82530002B61D14FF47F4000F0AAFA43
:10995000E72002B0BDE8704000F0DEBA5B7F002B6C
:10996000A5D04FF47F0000F09DFA637F284D002BB7
:109970009BD0E72000F0D0FA4FF4FA7005F08EFA91
:10998000E72000F09BFA4FF4FA7005F087FA6B7F3E
:10999000013BDBB26B77E8E7217D1D4A01F0FF0355
:1099A000002933D1116A0131022911620AD1012043
:1099B00010751D4A01910092042040F23F11164A91
:1099C00000F004FAFEF7FAFF002813DA236A0133E5
:1099D000022B23620CD10E4A01211175124A042078
:1099E0008DE80C004FF4A4710B4A002300F0EEF94F
:1099F000022300E003236377607F06F097F90023DA
:109A000064E702B0BDE87040FEF73EBF02B070BD33
:109A100014120020E3AD0108187F01083A1200205B
:109A2000540000200060FF00F5AD0108044B012246
:109A30005A70044B1A70002283F82420704700BF2C
:109A4000540000201412002010B5064C012363704E
:109A500094F825302BB9FFF7EAF900F5EA403030E9
:109A6000A06110BD1412002070B5194C194E637816
:109A700063B194F825302BB9FFF7D9F900F5EA4026
:109A80003030A0610123B370FF200CE0237A03F093
:109A9000FF056BB9FFF7CBF900F5EA403030A06164
:109AA000B5704FF47F4000F0FDF9E72000F034FA84
:109AB00000250123FF206570A57025716571A571D2
:109AC000B37000F0EFF9E72000F026FA657770BD7B
:109AD000141200205400002008B5094B70B1002278
:109AE0009A6101229A70074B4FF47F409A7000F000
:109AF000D9F9BDE80840E72000F00EBA987008BD1B
:109B00001412002054000020014B0122DA7070472B
:109B100014120020044B1B68984204D1034B00220E
:109B20009A715A711A717047DC10002014120020CB
:109B300013B5084C002100910A460B462046FFF75A
:109B400035FA0549054A204602B0BDE810400BF041
:109B50004BBE00BF74120020ED5F0008941300207C
:109B600038B504460D46FFF72BFC204625614FF41F
:109B70001651FFF739FC204638BD70B506460D4634
:109B8000002428460CF077F8844208D2295D30463C
:109B9000FFF710FC012005F081F90134F1E770BDF9
:109BA00010B500230446FFF783F820460649FFF767
:109BB000E4FF2046FFF7FAFB002803DD2046FFF70D
:109BC000EFFBF6E710BD00BFD4AF0108F0B595B0CC
:109BD0000446FFF7EBFB002840F3BC802046FFF76C
:109BE000DFFBC0B2772868D104F1140600212122DE
:109BF000304604F135050BF094FE41220021284641
:109C00000BF08FFE04F17607002384F876302046AF
:109C100051497B70FFF7B1FF204631462022FFF704
:109C2000BFFF20464D49FFF7A8FF012220463946D5
:109C3000FFF7B6FF94F87630A3F13002D2B2032AD0
:109C4000EFD8312B0BD120464549FFF796FF204630
:109C50004449FFF792FF20464349FFF78EFF94F8EF
:109C60007620B2F1300708D020464049FFF785FF43
:109C7000204629464022FFF793FF20463C49FFF744
:109C80007CFF23693A4630462946984720463949A1
:109C9000FFF773FF20463849FFF76FFF204637492B
:109CA000FFF76BFF20463649FFF767FF204635492F
:109CB000FFF763FF2046344944E0692812D120466B
:109CC0003249FFF75AFF05A8FEF70AFD204605991D
:109CD000FFF753FF20462E49FFF74FFF05A8FFF778
:109CE0001DFA37E06D2830D12A492046FFF745FF9D
:109CF00005A806F025F8012201A80AA9FEF7C6FC6E
:109D000020460199FFF739FF01A8FFF707FA0DF187
:109D1000290520462049FFF730FF012201A82946E6
:109D2000FEF7B4FC20460199FFF727FF01A8FFF7D3
:109D3000F5F96E1C0DF12E039E4201D03546E8E781
:109D400013492046FFF719FF04E0662802D1204698
:109D5000FEF732FB15B0F0BD28AE01082FAE0108AA
:109D60005CAE010892AE0108BDAE010803AF010868
:109D70000EAF010851AF010871AF0108A4AF01088F
:109D8000D7AF010816B0010847B001085DB001085F
:109D9000D4AF01086EB00108CEB0010813B5084C6D
:109DA000002100910A460B462046FFF7FFF80549BF
:109DB000054A204602B0BDE810400BF015BD00BFBB
:109DC00080120020ED5F0008941300202DE9F0417F
:109DD000A4B02AAC54F8045B80460E46174605949E
:109DE0002BB118462F210BF071FF441C00E0184CDA
:109DF00005F09EFB174A034652F8282002948DE88E
:109E00008400039606A87821134A0BF0EDFE134C4C
:109E100006463CB106A8FDF74FF8782E02D9104847
:109E2000FDF74AF82A4606A87821059B0CF082FD2A
:109E3000054654B106A8FDF73FF8782D02D9084829
:109E4000FDF73AF80748FDF737F824B0BDE8F08190
:109E5000D6AF0108307F010889B00108B96E00084B
:109E6000D9AB0108D4AF010810B5044B1C784443AA
:109E700006F0C8FD6043000C10BD00BF5900002073
:109E800038B50546C0F307400C46FFF7EDFF2080CC
:109E9000C5F30720FFF7E8FF6080E8B2FFF7E4FFB3
:109EA000A08038BD014B1860704700BF88120020A9
:109EB000014B5860704700BF8812002008B510B1F0
:109EC000E72804D008BDBDE8084006F085BD0020A5
:109ED0000246014606F06EFD024B00225A70012236
:109EE0009A7008BD59000020024B0122E7201A7227
:109EF000FFF7E4BF881200200346598800889A883B
:109F000006F058BD07B56946FFF7BAFF6846FFF788
:109F1000F3FF03B05DF804FB08B510B1E72805D0E6
:109F200008BD0120BDE8084006F056BD064B1A7A70
:109F30000AB1586800E01868FFF7E4FF034B63229A
:109F40005A70FF229A7008BD881200205900002024
:109F5000024B0022E7201A72FFF7DEBF88120020B2
:109F600013B510B1E72803D01EE006F041FD1BE059
:109F70000E4B1A7A0AB15C6800E01C68684606F06D
:109F800021FDBDF80220BDF800301343BDF80420C8
:109F900013439BB22BB100200146024606F00AFD96
:109FA00002E02046FFF7AEFF02B010BD881200208D
:109FB00013B5044608466946FFF762FFADF1020398
:109FC00001AA598863206143B1FBF0F123F8021F15
:109FD0009342F6D16846FFF78FFF02B010BD000034
:109FE0000C4B5A780AB9012102E0632A01D1FF2102
:109FF00099709978E7280A44D2B25A7008D1064B72
:10A00000197A09B1596800E019681046FFF7D0BF06
:10A01000704700BF5900002088120020024B187AB8
:10A02000003018BF01207047881200204FF42072C2
:10A030000260002280F8962680F8972680F89826FD
:10A0400000F2D962C0F86429C0F8602900F65912FC
:10A05000C0F85C29704790F897067047002380F895
:10A06000983670472DE9F04104460F4690465168F6
:10A0700010304FF493721D46069E0BF02EFCD8F85C
:10A0800000104FF4197204F59B700BF026FC3B682E
:10A0900004F2DC4063607B680021A360BB684FF47E
:10A0A000A872E36004F2D963C4F86439C4F8603973
:10A0B0002368234403F2D963C4F85C392B68C4F8DD
:10A0C000B4346B68C4F8B834AB68C4F8BC34EB681B
:10A0D000C4F8C0342B69C4F8C4346B69C4F8C834FC
:10A0E000AB69C4F8CC34EB69C4F8D0342B6AC4F83B
:10A0F000D4346B6AC4F8D8343368C4F82C36736827
:10A10000C4F83036B368C4F83436F368C4F8383667
:10A110003369C4F83C367369C4F84036B369C4F88F
:10A120004436F369C4F84836336AC4F84C360BF049
:10A13000F8FB012384F89736BDE8F0812DE9F04162
:10A14000D0F8D4340546884616469847002407467A
:10A15000A64215DDD5F8B43408EB0400311B98474E
:10A16000002810DB01D00444F2E7D5F8D434984736
:10A1700044F62063C01B9842EAD94FF0FF3002E05A
:10A180002046BDE8F081BDE8F0812DE9F041D0F82E
:10A19000D434054688461646984700240746A6420A
:10A1A00015DDD5F8B83408EB0400311B98470028BA
:10A1B00010DB01D00444F2E7D5F8D434984744F6D4
:10A1C0002063C01B9842EAD94FF0FF3002E02046DE
:10A1D000BDE8F081BDE8F0812DE9F04786B002AE20
:10A1E00080460D4692460C4601F11003B1462068A8
:10A1F0006168374603C708349C423E46F7D108F5EC
:10A200006776304608F5CA61802208F5CE6801F00D
:10A2100059F930464346009501950021524601F018
:10A22000FDFD4C46434606AE224603CAB2421860C4
:10A230005960144603F10803F6D12B78284603F041
:10A240000F032B445C7903F014FA04283FD8DFE8AD
:10A2500000F0050C273603000C203FE0642C38D0BA
:10A26000762C0CBF03200F2038E0662C10D006D8C7
:10A27000632C13D0652C09D0452C28D106E0732C13
:10A2800008D0752C08D0682C21D124E0082025E0C6
:10A29000022023E0042021E005201FE007201DE02C
:10A2A000732C06D0752C18D06B2C0CBF09200F20F6
:10A2B00014E02B7A002B0CBF0B200A200EE028465E
:10A2C00003F0EFF900280CBF0E200D2006E00F2050
:10A2D00004E0012002E0002000E0062006B0BDE816
:10A2E000F08741230B7001234B70B0F8883601339F
:10A2F0009BB21A12A0F888368A70CB7090F88A3612
:10A300000133DBB280F88A360B71B1234B717423B1
:10A310008B71072070475023037002234370002382
:10A320008370C370B123037168234371FF2383716A
:10A330000B68C0F807304B68C0F80B308B68C0F86A
:10A340000F3013207047F7B5054600F567760C46C9
:10A35000174605F5CA613046802205F5CC6500F048
:10A36000B1FF01212B460094019430463A4601F09A
:10A3700055FD214604F1100351F8042B994245F88C
:10A38000042BF9D103B0F0BD38B5B0F888360C46CF
:10A3900001339BB25021A0F88836217002216170F0
:10A3A000E3701912B12323716823A17063716421D2
:10A3B000FF23A371E3712372A172002303210546D9
:10A3C000227363720A46E37204F10D000BF0A9FADE
:10A3D000284621461022BDE83840FFF7B4BF38B503
:10A3E0000C46B0F888160546013189B2A0F88816E7
:10A3F0002271FF22627151201A162070A27144202E
:10A400001A146070E1700812E27106211A12A0702D
:10A41000227263720A4604F10A000BF082FA28469F
:10A4200021461022BDE83840FFF78DBF70B50C46BD
:10A430009DF81410054661269DF810002670A37043
:10A44000A17145260921FF23E070227166700A463A
:10A450006371E01D0BF065FA284621461022BDE825
:10A460007040FFF770BF70B50C460599A370FF23CD
:10A4700063710B160546A3719DF810000B1461263D
:10A480002670E37161720B1245260621E07022717D
:10A4900066700A46237204F10A000BF042FA28465D
:10A4A00021461022BDE87040FFF74DBF70B50C4645
:10A4B00004A9054611F8080BA370FF2363716126F8
:10A4C0000B462670E070452603CBC4F80A10022123
:10A4D0002271C4F806000A46667004F10E000BF003
:10A4E00020FA284621461022FFF72DFF70BD70B5D7
:10A4F0000C46A3709DF81030069D61212170E37019
:10A500004521FF23637106466170227105992A4631
:10A51000A01D0BF0E2F9A81D20F00F051035291A37
:10A52000C9B20A4620440BF0FCF9304621462A46BF
:10A53000FFF709FF284670BD2DE9F0410D46B0F840
:10A54000881600F2DB66013189B204461346A0F892
:10A5500088162A46304600F086FE20F00F0707F1E5
:10A5600010055FFA85F8C0EB0801C9B220440A461D
:10A5700000F2DB600BF0D5F9204631462A462D0A61
:10A58000FFF7E1FE84F8D95684F8DA86204604F213
:10A59000D96107F11202FFF7D1FDC043C00FBDE83A
:10A5A000F0812DE9F0410D46B0F8881600F2DB6627
:10A5B000013189B204461346A0F888162A4630466F
:10A5C00000F068FE20F00F0707F110055FFA85F82C
:10A5D000C0EB0801C9B220440A4600F2DB600BF070
:10A5E000A0F9204631462A462D0AFFF7ACFE84F832
:10A5F000D95684F8DA86204604F2D96107F11202AE
:10A60000FFF79CFDC043C00FBDE8F08170B5054663
:10A6100000F2DC4400F22C66236C6BB194F84530F8
:10A620002846214623B104F14502FFF785FF03E0E8
:10A6300094F84420FFF7B5FF5434B442ECD170BD18
:10A6400038B5B0F888360C4601339BB24021A0F8EB
:10A650008836217001216170E3701912B1232371D2
:10A6600063236371FF23A170A371072113120546B1
:10A670002272E3710A4604F109000BF052F92846F0
:10A6800021461022BDE83840FFF75DBE2DE9F843B2
:10A690000C46A3709DF820302271E370FF23637194
:10A6A0003B4B61211A689B88217045216170C4F879
:10A6B00006206381D0F82C360646984704F10C0535
:10A6C000814600274F4518DA17B12C2305F8013BC6
:10A6D0004FF0220805F8018B28463946D6F8303667
:10A6E000984728460BF0C7FA0C28A8BF0C202A1858
:10A6F00005F800800137551CE4E7264B07351A683A
:10A70000002745F8072C9A889B7925F8032C05F833
:10A71000013CD6F8383698478046474521DA17B1CC
:10A720002C2305F8013B222305F8013B3946D6F8D6
:10A730003C362846984728460BF09DFAD6F8403616
:10A740008146284698471449B9F10C0FB4BF4A46D0
:10A750000C220988AB183030A95201379870DD1CE3
:10A76000DBE70E4B28461B8820F8023B011B21F03B
:10A770000F071037791AC9B20A460BF0D2F83046E3
:10A7800021463A46FFF7DFFD3846BDE8F88300BFB3
:10A79000BEB00108C5B00108CDB00108D0B00108B5
:10A7A00038B5B0F88836402201339BB2A0F888361D
:10A7B0000A7000224A701A1205460C468A70CB7045
:10A7C000081D0C210A460BF0ACF828462146102241
:10A7D000BDE83840FFF7B7BD2DE9F04122F00F0684
:10A7E00006F11005EFB20C46B91A8046C9B2901CAA
:10A7F00020440A460BF095F840462A46A11C2D0A33
:10A80000FFF7A1FD2570677006F11200BDE8F08129
:10A810002DE9F3479A4690F89836044689469046C3
:10A820000BB1002037E01D4DD0F8D4342F68984785
:10A830001B4E46F827002F6807F1010C05279CFBEB
:10A84000F7F707EB8707C7EB0C0756F827302F60A1
:10A85000C01AB0F57A7FE4D3B4F888169DF8283092
:10A86000013189B2A4F8881601934A464346CDF8CF
:10A8700000A004F2DB6000F09EFC04F2D965024601
:10A8800029462046FFF7A8FF294602462046FFF743
:10A8900055FCC043C00F02B0BDE8F0879412002001
:10A8A0005C00002038B590F89836044693B900F261
:10A8B000DB61FFF716FD04F2D96502462946204602
:10A8C000FFF78AFF294602462046FFF737FCC043C0
:10A8D000C00F38BD002038BD38B50C46B0F888161A
:10A8E0000546013189B2A0F888166370E1700B1239
:10A8F00051200B2120702271A3700A46601D0BF0BD
:10A9000010F8284621461022BDE83840FFF71BBD4D
:10A910004423FFF7E1BFF0B591B0044606AA00F565
:10A920009B700D4602F0A2FF00284CD1284606A9D4
:10A9300001AA02F0E4FE05F1800004F1100101AA71
:10A9400002F008FF054600283FD106AE04F5CA62B2
:10A950000AAF334603CBBB42106051601E4602F182
:10A960000802F6D1BE4604F5CC620EAE734603CBA8
:10A97000B342106051609E4602F10802F6D104F520
:10A98000CE623B4603CBB342106051601F4602F1DA
:10A990000802F6D1334603CB9DF838209DF83930B4
:10A9A000C4F8800643EA0223DDF83B00A4F88836A9
:10A9B0009DF83A300090C4F8841684F88A360098DE
:10A9C00002F055FE02E0012500E00225284611B004
:10A9D000F0BDF0B5024652F8043F00F2D965C0F868
:10A9E00001375368ABB0C0F8053793682946C0F803
:10A9F000093728220446FFF7C8FB00283DDB03A8DF
:10AA000004F1100104F20D7602F086FE009603A810
:10AA1000002134222B4601F03BFB074603A801F03E
:10AA200053FC3FBB31464FF480722046FFF786FB54
:10AA3000204629464FF4C072FFF7A7FB00281CDB15
:10AA400020462946FFF767FF0646A8B9102384F879
:10AA5000DA3684F8D906D4F84836984704F2DB6130
:10AA600002462046FFF790FC204629461222FFF7B7
:10AA700065FB01E0384600E030462BB0F0BD38B54C
:10AA80000C4660212170002161700C210546A270E6
:10AA9000E3700A46201D0AF044FF28462146102292
:10AAA000BDE83840FFF74FBC70B50C469DF8141058
:10AAB00005469DF81000E17061260B21A0702271FF
:10AAC00026700A466370601D0AF02BFF2846214657
:10AAD0001022BDE87040FFF736BC2DE9F04FD0F8EA
