:020000040800F2
:1050000000500020ED6400083DE2000841E2000885
:1050100065E2000889E20008ADE200080000000037
:10502000000000000000000000000000D1E20008C5
:10503000D3E2000800000000D5E20008D9E2000831
:1050400041650008416500084165000855E5000814
:1050500041650008416500085DE300087DE3000844
:105060009DE30008D1E30008F1E300084165000872
:10507000416500084165000841650008BDE500087C
:105080004165000841650008FDE20008416500082F
:10509000C1E50008416500084165000811E4000809
:1050A000416500084165000841650008D9E4000831
:1050B00025E5000835E5000845E500082DE3000872
:1050C0003DE3000841650008416500084DE3000824
:1050D000416500080DE300081DE300084165000874
:1050E00061E400087DE5000841650008000000005B
:1050F00000000000000000000000000000000000B0
:0C51000000000000000000005FF808F153
:1051100081F0004102E000BF83F0004330B54FEA68
:1051200041044FEA430594EA050F08BF90EA020FD5
:105130001FBF54EA000C55EA020C7FEA645C7FEA68
:10514000655C00F0E2804FEA5454D4EB5555B8BF8B
:105150006D420CDD2C4480EA020281EA030382EAFC
:10516000000083EA010180EA020281EA0303362D8E
:1051700088BF30BD11F0004F4FEA01314FF4801C61
:105180004CEA113102D0404261EB410113F0004F73
:105190004FEA03334CEA133302D0524263EB43032A
:1051A00094EA050F00F0A780A4F10104D5F1200EC8
:1051B0000DDB02FA0EFC22FA05F2801841F1000123
:1051C00003FA0EF2801843FA05F359410EE0A5F1F7
:1051D00020050EF1200E012A03FA0EFC28BF4CF028
:1051E000020C43FA05F3C01851EBE37101F00045DE
:1051F00007D54FF0000EDCF1000C7EEB00006EEBEB
:105200000101B1F5801F1BD3B1F5001F0CD3490874
:105210005FEA30004FEA3C0C04F101044FEA4452CB
:1052200012F5800F80F09A80BCF1004F08BF5FEA52
:10523000500C50F1000041EB045141EA050130BD32
:105240005FEA4C0C404141EB010111F4801FA4F1D5
:105250000104E9D191F0000F04BF01460020B1FA2A
:1052600081F308BF2033A3F10B03B3F120020CDA62
:105270000C3208DD02F1140CC2F10C0201FA0CF040
:1052800021FA02F10CE002F11402D8BFC2F1200CA5
:1052900001FA02F120FA0CFCDCBF41EA0C0190405B
:1052A000E41AA2BF01EB0451294330BD6FEA0404A4
:1052B0001F3C1CDA0C340EDC04F11404C4F120028F
:1052C00020FA04F001FA02F340EA030021FA04F3A1
:1052D00045EA030130BDC4F10C04C4F1200220FAF8
:1052E00002F001FA04F340EA0300294630BD21FA36
:1052F00004F0294630BD94F0000F83F4801306BFFC
:1053000081F480110134013D4EE77FEA645C18BFEF
:105310007FEA655C29D094EA050F08BF90EA020F86
:1053200005D054EA000C04BF1946104630BD91EA7E
:10533000030F1EBF0021002030BD5FEA545C05D181
:105340004000494128BF41F0004130BD14F58004C0
:105350003CBF01F5801130BD01F0004545F0FE4134
:1053600041F470014FF0000030BD7FEA645C1ABF69
:10537000194610467FEA655C1CBF0B46024650EAA0
:10538000013406BF52EA033591EA030F41F40021CC
:1053900030BD00BF90F0000F04BF0021704730B552
:1053A0004FF4806404F132044FF000054FF0000127
:1053B00050E700BF90F0000F04BF0021704730B5E8
:1053C0004FF4806404F1320410F0004548BF4042BD
:1053D0004FF000013EE700BF42004FEAE2014FEA12
:1053E00031014FEA02701FBF12F07F4393F07F4FED
:1053F00081F06051704792F0000F14BF93F07F4F1F
:10540000704730B54FF4607401F0004521F0004161
:1054100020E700BF50EA010208BF704730B54FF0E7
:1054200000050AE050EA010208BF704730B511F0EC
:10543000004502D5404261EB41014FF4806404F124
:1054400032045FEA915C3FF4DCAE4FF003025FEAA6
:10545000DC0C18BF03325FEADC0C18BF033202EB2E
:10546000DC02C2F1200300FA03FC20FA02F001FA88
:1054700003FE40EA0E0021FA02F11444C1E600BF27
:1054800070B54FF0FF0C4CF4E06C1CEA11541DBFDA
:105490001CEA135594EA0C0F95EA0C0F00F0DEF8A5
:1054A0002C4481EA030621EA4C5123EA4C5350EA8A
:1054B000013518BF52EA033541F4801143F48013DB
:1054C00038D0A0FB02CE4FF00005E1FB02E506F06C
:1054D0000042E0FB03E54FF00006E1FB03569CF0C1
:1054E000000F18BF4EF0010EA4F1FF04B6F5007FC7
:1054F00064F5407404D25FEA4E0E6D4146EB060639
:1055000042EAC62141EA55514FEAC52040EA5E50C1
:105510004FEACE2EB4F1FD0C88BFBCF5E06F1ED86B
:10552000BEF1004F08BF5FEA500E50F1000041EBA2
:10553000045170BD06F0004646EA010140EA02004F
:1055400081EA0301B4EB5C04C2BFD4EB0C0541EA71
:10555000045170BD41F480114FF0000E013C00F386
:10556000AB8014F1360FDEBF002001F0004170BDAA
:10557000C4F10004203C35DA0C341BDC04F11404C3
:10558000C4F1200500FA05F320FA04F001FA05F24F
:1055900040EA020001F0004221F0004110EBD3701C
:1055A00021FA04F642EB06015EEA430E08BF20EA48
:1055B000D37070BDC4F10C04C4F1200500FA04F3EB
:1055C00020FA05F001FA04F240EA020001F000417D
:1055D00010EBD37041F100015EEA430E08BF20EAF0
:1055E000D37070BDC4F1200500FA05F24EEA020E38
:1055F00020FA04F301FA05F243EA020321FA04F067
:1056000001F0004121FA04F220EA020000EBD3701D
:105610005EEA430E08BF20EAD37070BD94F0000F1D
:105620000FD101F00046400041EB010111F4801F51
:1056300008BF013CF7D041EA060195F0000F18BF02
:10564000704703F00046520043EB030313F4801F3E
:1056500008BF013DF7D043EA0603704794EA0C0FF8
:105660000CEA135518BF95EA0C0F0CD050EA41060E
:1056700018BF52EA4306D1D181EA030101F000418B
:105680004FF0000070BD50EA410606BF10461946B3
:1056900052EA430619D094EA0C0F02D150EA0136BF
:1056A00013D195EA0C0F05D152EA03361CBF104600
:1056B00019460AD181EA030101F0004141F0FE419F
:1056C00041F470014FF0000070BD41F0FE4141F423
:1056D000780170BD70B54FF0FF0C4CF4E06C1CEA23
:1056E00011541DBF1CEA135594EA0C0F95EA0C0FD8
:1056F00000F0A7F8A4EB050481EA030E52EA033593
:105700004FEA013100F088804FEA03334FF08055B3
:1057100045EA131343EA12634FEA022245EA1115E0
:1057200045EA10654FEA00260EF000419D4208BF91
:10573000964244F1FD0404F5407402D25B084FEA3E
:105740003202B61A65EB03055B084FEA32024FF4EA
:1057500080104FF4002CB6EB020E75EB030E22BF47
:10576000B61A754640EA0C005B084FEA3202B6EB07
:10577000020E75EB030E22BFB61A754640EA5C00B6
:105780005B084FEA3202B6EB020E75EB030E22BF46
:10579000B61A754640EA9C005B084FEA3202B6EB47
:1057A000020E75EB030E22BFB61A754640EADC0006
:1057B00055EA060E18D04FEA051545EA16754FEA68
:1057C00006164FEAC30343EA52734FEAC2025FEA86
:1057D0001C1CC0D111F4801F0BD141EA00014FF015
:1057E00000004FF0004CB6E711F4801F04BF0143E6
:1057F0000020B4F1FD0C88BFBCF5E06F3FF6AFAE02
:10580000B5EB030C04BFB6EB020C5FEA500C50F191
:10581000000041EB045170BD0EF0004E4EEA113114
:1058200014EB5C04C2BFD4EB0C0541EA045170BD1B
:1058300041F480114FF0000E013C90E645EA060E5F
:105840008DE60CEA135594EA0C0F08BF95EA0C0F8D
:105850003FF43BAF94EA0C0F0AD150EA01347FF4D5
:1058600034AF95EA0C0F7FF425AF104619462CE7AC
:1058700095EA0C0F06D152EA03353FF4FDAE10460F
:10588000194622E750EA410618BF52EA43067FF460
:10589000C5AE50EA41047FF40DAF52EA43057FF4F0
:1058A000EBAE12E74FF0FF3C06E000BF4FF0010CFB
:1058B00002E000BF4FF0010C4DF804CD4FEA410C5F
:1058C0007FEA6C5C4FEA430C18BF7FEA6C5C1BD02C
:1058D00001B050EA410C0CBF52EA430C91EA030FAD
:1058E00002BF90EA020F0020704710F1000F91EA0A
:1058F000030F58BF994208BF90422CBFD8176FEAD8
:10590000E37040F0010070474FEA410C7FEA6C5CA5
:1059100002D150EA013C07D14FEA430C7FEA6C5CAC
:10592000D6D152EA033CD3D05DF8040B704700BFD8
:105930008446104662468C461946634600E000BF26
:1059400001B5FFF7B7FF002848BF10F1000F01BDF8
:105950004DF808EDFFF7F4FF0CBF012000205DF8C3
:1059600008FB00BF4DF808EDFFF7EAFF34BF012048
:1059700000205DF808FB00BF4DF808EDFFF7E0FFE1
:1059800094BF012000205DF808FB00BF4DF808ED32
:10599000FFF7CEFF94BF012000205DF808FB00BF99
:1059A0004DF808EDFFF7C4FF34BF012000205DF87B
:1059B00008FB00BF4FEA410212F5001215D211D5C3
:1059C0006FF47873B3EB625212D94FEAC12343F0FC
:1059D000004343EA505311F0004F23FA02F018BF7E
:1059E000404270474FF00000704750EA013005D147
:1059F00011F0004008BF6FF0004070474FF000000A
:105A0000704700BF014B0360704700BF4861010849
:105A100010B5034B0446036008F0B8FB204610BDE8
:105A20004861010838B5018001EB41018DB204469F
:105A300045800371427128460EF0C6F8A06018B187
:105A400000212A460EF011F9204638BD10B500217C
:105A50000446407901F056FB6079002101F063FBB8
:105A600001F08FFBE06010BD30B5836885B004465F
:105A7000002B00F0B88001F084FBE368C01A3128E5
:105A8000F9D972B622796388022AADF80630A36884
:105A90004CD062B601F075FBE060A4E06279182199
:105AA0004A43524B981880889A581061029A03987A
:105AB00010421A4665D0004600BF00BF00BF00BFBD
:105AC00000BF00BF00BF00BF00BF00BF00BF00BFDE
:105AD00000BF00BF00BF00BF00BF00BF00BF00BFCE
:105AE00000BF00BF00BF00BF00BF00BF00BF00BFBE
:105AF00000BF00BF00BF00BF00BF00BF00BF00BFAE
:105B000000BF00BF00BF00BF607941430A445B583B
:105B100092885A61039B5B0803939DF8023001331E
:105B2000DBB2172B8DF80230B8D92B46BDF8062012
:105B300092B2002AADD04FF400020392BDF80620C5
:105B4000DD1C92B2033A92B2ADF806201A78D2B2B6
:105B50008DF803205A78D2B28DF804209B78DBB2FE
:105B60008DF805309DF803109DF804309DF8052050
:105B70001B0243EA01431343029300238DF80230D2
:105B80008CE7004600BF00BF00BF00BF00BF6079C8
:105B900041430A445B5892885A61004600BF00BFE7
:105BA00000BF00BF00BF00BF00BF00BF00BF00BFFD
:105BB00000BF00BF00BF00BF00BF00BF00BF00BFED
:105BC00000BF00BF00BF00BF00BF00BF00BF00BFDD
:105BD00000BF00BF00BF00BF00BF00BF00BF00BFCD
:105BE00000BF00BF96E705B030BD00BF70000020C9
:105BF00030B503888B4213D98379C2F30744C2F3CB
:105C00000725D2B22BB15C435D435A43240A2D0AC7
:105C1000120A836801EB410158185D544470827088
:105C200030BD42EA012242EA004070474A1C8379B3
:105C3000D2B29A4270B51FD0013B13F0FF038468C3
:105C40000CD0FF2904D14FF6FF7191FBF3F106E070
:105C50001102013991FBF3F189B200E019462346A4
:105C60001D1B4688ADB2AE4205D91D784D432D129D
:105C700003F8015BF4E7827170BD000013B5084CB6
:105C8000002100910A460B46204601F037FB0549EA
:105C9000054A204602B0BDE810400DF049BF00BFE4
:105CA00098040020055A00089013002013B5084CF2
:105CB000002100910A460B46204601F01FFB0549D2
:105CC000054A204602B0BDE810400DF031BF00BFCC
:105CD000BC040020055A00089013002013B5084C9E
:105CE000002100910A460B46204601F007FB0549BA
:105CF000054A204602B0BDE810400DF019BF00BFB4
:105D0000C8040020055A00089013002010B5084C64
:105D10002368DB0709D4204608F086FA28B1054835
:105D200000F021FA204608F085FA024810BD00BFB5
:105D3000FC130020F013002010B5142008F024FA02
:105D4000044600F0C3FA034B20461C60BDE8104037
:105D500000F0E3BAD004002008B5FFF7D7FF806851
:105D600000F025F9FFF7D2FF03681B782BB1034B36
:105D70001868BDE8084000F086BB08BDD0040020CC
:105D800010B5084B04461A7932B9012206484FF47F
:105D900016511A7101F0D0FC21460348BDE81040AD
:105DA00001F0FDBAD0040020F011002037B50B4CF3
:105DB000002104F108050B4600910A46284601F02F
:105DC0009DFA28460649074A0DF0B2FE04F110007C
:105DD000022103B0BDE8304000F06ABCD0040020CE
:105DE000055A00089013002010B5044601F0C7F9C9
:105DF000206301F0C4F96063204610BD10B528226D
:105E000004464160002108300DF02FFF01200023DF
:105E10002070637010BD08307047000013B5084C47
:105E2000002100910A460B46204601F067FA054919
:105E3000054A204602B0BDE810400DF079BE00BF13
:105E4000E4040020055A000890130020002202609C
:105E500042608260027342738273C273027442743E
:105E60008274C27402754275C282027642767047AD
:105E700070B5054600F1100400F19C0620461C3464
:105E8000FFF7E4FFB442F9D105F5947620461C34BF
:105E9000FFF7DCFFB442F9D1284670BD10B50160B0
:105EA0000446FFF733FF03686360FFF72FFF836843
:105EB000A36010BD37B50F4B0F4D04462A461B217A
:105EC00000930220002302F029F9A06800F07BF87B
:105ED00000F08DF9094B1E2100932A460023022071
:105EE00002F01CF94FF47A7001F04EF9002323738D
:105EF00003B030BDA08C0108885F0108A68C0108A2
:105F000030B5144B85B00093054631210220124A6A
:105F1000002302F003F90024A86800F052F800F012
:105F2000DAF823B2834212DAA86800F04AF80023B4
:105F30008DF80C308DF80D307F23A4B28DF80E3023
:105F40002146039A013400F0C8F8A4B2E4E705B092
:105F500030BD00BFB18C0108A85F010837B5104CF7
:105F600000252B4629462A460095204601F0C6F911
:105F700020460C490C4A0DF0DBFDFF238C222572D4
:105F80006372A572E37223736573A373E27325745E
:105F90006374A574E57425756575A57503B030BD8A
:105FA000EC040020055A000890130020704710B53B
:105FB0000446406800F07FF8A068BDE8104000F09B
:105FC0005AB9406870478068704773B504461C2012
:105FD00008F0DAF80A25064600F03FF8F021112211
:105FE000022366603046009500F03EF8182008F065
:105FF000CBF8064600F0EAF83046042103222B468F
:10600000A66002B0BDE8704000F0FAB8002201605E
:1060100042608260FFF7D9BF13B5084C00210091A0
:106020000A460B46204601F069F90549054A204613
:1060300002B0BDE810400DF07BBD00BF040500209C
:10604000055A00089013002038B504460D4601F0AB
:1060500096F8401B2060204638BD10B5044601F07C
:106060008EF86060204610BD2DE9F04104461020F6
:106070000D4690461F4608F087F83B4642460646C6
:106080002946FFF7CFFCC82130462661FFF7CEFD39
:106090002069FFF7DBFC2069FFF7E6FC069B002187
:1060A000A360204601232173258300F8043BFFF7FA
:1060B000CBFFBDE8F08110B50378044653B101F081
:1060C0005EF86368A268C01A904203D3201D0021C5
:1060D000FFF7BAFF10BD008B704737B50192038BF5
:1060E00004468B420D4612D99DF805109DF80620F6
:1060F0009DF80400FFF795FD294602462069FFF749
:1061000077FD206903B0BDE83040FFF7ADBC03B0B8
:1061100030BD000013B5084C002100910A460B4623
:10612000204601F0EBF80549054A204602B0BDE8DB
:1061300010400DF0FDBC00BF0C050020055A000802
:106140009013002070B5044600680D46FFF756FE18
:1061500029460646A068FFF759FF60682946FFF701
:106160009DFE304670BD38B50446382008F00CF866
:106170000546FFF739FE25604FF4947008F004F8E7
:106180000546FFF775FE65600C2007F0FDFF05462C
:10619000FFF70CFFA560204638BD000013B5084C82
:1061A000002100910A460B46204601F0A7F8054958
:1061B000054A204602B0BDE810400DF0B9BC00BF52
:1061C00014050020055A00089013002010B504465D
:1061D00000F0D5FFA060204610BD007CD0F101008A
:1061E00038BF002070478078012100F09CBF012259
:1061F0000274002242748274C2740275FFF7F3BF06
:1062000010B504464360417082700846022100F0D8
:1062100079FFA078002100F075FF0123237020464C
:10622000BDE81040FFF7E3BF38B5044600F0A7FF14
:106230000546607800F090FF227CC0B2904205D005
:1062400008B9E56002E000212175A17400216174A4
:10625000E174E1686D1AB5F5FA6F34BF00250125C8
:1062600018B935B10122E27403E012B90DB9012267
:106270006274207438BD10B50378044663B100F031
:106280007EFFA3686268C01A904205D32046FFF7DC
:10629000CBFF00F074FFA06010BD000013B5084CE8
:1062A000002100910A460B46204601F027F80549D7
:1062B000054A204602B0BDE810400DF039BC00BFD1
:1062C0001C050020055A00089013002070470000AC
:1062D00007B5084B87210093027B074B012003EB96
:1062E000C2035B68054A0193002301F017FF03B066
:1062F0005DF804FBB48C010800000020CE5F0108AB
:1063000038B504460D46017BFFF7E2FF25732046B2
:106310002946BDE8384000F003B80221FFF7F0BF7E
:1063200037B52C4B0D460093027B2B4B044603EBF9
:10633000C2035B68012001933421284A002301F045
:10634000EDFE022D19D1FFF7E1FC2146FFF7FAFE21
:1063500030B92046012103B0BDE83040FFF7D0BF7F
:10636000FFF7D4FC03682360FFF7D0FC4368636049
:10637000FFF7CCFC8368A3602AE0032D0AD1606894
:10638000FFF798FD00F010FB10B303B0BDE83040FC
:1063900000F046BA042D05D1606803B0BDE8304076
:1063A000FFF7AEBD052D13D0062D07D100F0E7FE97
:1063B000206103B0BDE8304001F03CB8012D07D1A9
:1063C000074B042000935221044A002301F0A6FE4B
:1063D00003B030BDC28C0108000000200460010839
:1063E000D18C010838B5044600680D46FFF713FD4F
:1063F0008379DB0908D123685B782BB901F094FA23
:1064000010B1022D2ED101E0022D33D1A068FFF78B
:10641000DAFDFFF7E2FE78B12068FFF7FCFC0546E5
:106420002068FFF7F8FC8279AB79C2F3C01282F0E2
:10643000010262F3C713AB712068FFF7ECFC8379AC
:10644000DB090CD101F0C0F901F06EFA38B1236814
:1064500001225A7000F0A8FA08B900F0B5FA2046F7
:1064600003210BE0236801225A7000F09DFA08B95D
:1064700000F0AAFA032D05D120460421BDE83840DA
:10648000FFF73EBF38BD017BFFF7ACBF13B5084C2B
:10649000002100910A460B46204600F02FFF0549D7
:1064A000054A204602B0BDE810400DF041BB00BFD8
:1064B00024050020055A00089013002013B5084C4D
:1064C000002100910A460B46204600F017FF0549BF
:1064D000054A204602B0BDE810400DF029BB00BFC0
:1064E0002C050020055A000890130020002100F020
:1064F00004B80E4B5B58435004310D480D4B421805
:106500009A42FFF4F6AF0C4A00F003B8002342F8B9
:10651000043B0A4B9A42FFF4F9AF09F0B9F906F0CF
:10652000C9FD07F015FE06F03FFE7047749801089C
:10653000000000209804002098040020741E002011
:10654000FFF7FEBF014B1878704700BF34050020ED
:10655000064B0246582000FB013101F1080303CB32
:106560001060516018689060704700BF34050020CB
:10657000014B93F86401704734050020064B024636
:10658000142000FB013101F5B67303CB106051609C
:1065900018689060704700BF3405002038B5054684
:1065A000064C28B101F048FE012384F8303238BD92
:1065B00001F076FE84F8305238BD00BF340500206B
:1065C0002DE9F0410D4B804693F864710024BC42E4
:1065D00011DA14256543094E414606F5B670284484
:1065E0000C220DF0F4FC20B93544D5F86801BDE863
:1065F000F0810134EBE70020BDE8F0813405002094
:10660000064B10B50022C3F8342207F055F80446B3
:10661000E72001F04DFE204610BD00BF34050020EC
:106620002DE9F04788B0804668460D4600F060FFCF
:106630001E4B002493F800A054452DDA55B358267C
:1066400066431A4F414607F1080030440C2207F117
:1066500004090DF0BCFCE8B928460DF0B0FC06F1C9
:106660001003402834BF02464022294609EB0300AC
:106670000DF0D7FA3E44012386F85830694604A845
:10668000746800F057FF04A8A047044604A800F06F
:10669000EDFE03E00134CFE74FF0FF34684600F031
:1066A000E5FE204608B0BDE8F08700BF34050020B5
:1066B00001290AD002D3022910D070470C4B0022C6
:1066C00083F8382201220B4B10E0094B002283F89B
:1066D0003812084B1A70084B19707047044B00228F
:1066E00083F83812034B1A70034B01221A7070475B
:1066F000340500205300002025120020014B93F8A0
:10670000380270473405002038B5124C0546BCB13C
:1067100006F0CAFF01462846AFF30080044648B1A0
:106720000D49284600F050FE642000F02DFD06F0D3
:10673000C5FF0CE0094B1870094BC3F8340206E0A2
:10674000084900F041FE2846074900F03DFE20467A
:1067500038BD00BF000000002C8D0108161200207B
:10676000340500205A8D0108908D010838B5084B7A
:10677000044693F839221D46824207D010B101F039
:106780005BFD01E001F08CFD85F8394238BD00BFAA
:106790003405002008B5084A1378022B05D10023E0
:1067A0001370064AC2F8343201E006F087FFBDE8F4
:1067B00008400020FFF7DABF161200203405002041
:1067C00008B5084B93F8393253B142EA012141EA46
:1067D000004001F015FDBDE80840E72001F044BD90
:1067E00008BD00BF340500200246C2F30721C0F3F4
:1067F0000740D2B2FFF7E4BF73B5002B0CBF65238F
:10680000452306460D461446009331462A46234644
:10681000024802F0A5F902B070BD00BF7007002069
:10682000014802F0E7B900BF7007002073B51B4DA7
:106830001B4ED5F8A40B06F0E7FF431E5C425C41FB
:10684000D4B1184B184A0093D5F8A43B0220019309
:106850004FF4D071002301F061FCD5F8A43B3268FD
:10686000934209D0114A02208DE80C004FF4D271F6
:106870000D4A002301F052FCD5F8A42B33689A424C
:1068800009D10B4B022000934FF4D471064A002328
:1068900001F044FC0124204602B070BD3405002004
:1068A000F0870108D58D01083C600108168E0108AB
:1068B000488E010837B5114B05461B780C467BB94D
:1068C0000F4B1B7863B9FFF7B1FF48B90D4B294651
:1068D000D3F8A40B224603B0BDE8304006F09FBFBA
:1068E000094B0220009340F2EF11084A002301F007
:1068F00015FC4FF0FF3003B030BD00BF2412002064
:106900002512002034050020668E0108556001081C
:1069100073B51E4B05461B780E462BB91C4B1B78D6
:1069200013B9FFF783FF58B11A4B0220009340F2CE
:10693000FF11194A002301F0F1FB4FF0FF3023E073
:10694000164B174C1B78012B03D1164B1B78012BD0
:106950000DD1294632460023D4F8A40B06F0FAFEE6
:10696000C4F8A80B00F00BFCC4F8AC0B0AE0D4F898
:10697000A83B002BEDDC00F002FCD4F8AC3BC01AC5
:106980000A28E6D8D4F8A80B02B070BD2412002063
:1069900025120020668E010884600108151200206F
:1069A0003405002016120020054B1B7803F0FF0071
:1069B00023B1044B1878003018BF0120704700BF86
:1069C000141200201512002008B500F0B5FF024B8C
:1069D00001221A7008BD00BF5300002070B50C469C
:1069E00012491646054600F083FD2644B4421BD0EA
:1069F00014F8013B28461B0903F13001392984BFF3
:106A000003F15701C9B200F0B7FD14F8013C284664
:106A100003F00F0303F13001392984BF03F157015B
:106A2000C9B200F0A9FDE1E7284670BD5391010805
:106A3000B0B50546002000AF014607F071FBC31D4D
:106A400023F00703ADEB030D04462146684607F02B
:106A500067FB284669462246FFF7C0FF2846BD4629
:106A6000B0BD000070B5044601200D461646FFF784
:106A70007DFE4FF0FF10FFF7B7FE064BE4B21C702F
:106A8000054B0022C3F8342228463146BDE8704049
:106A900006F010BE161200203405002003460A46F8
:106AA00002201946FFF7DEBF10B506F0FDFD0446D3
:106AB00006F0FDFD21460246BDE810400120FFF72B
:106AC000D1BF00002DE9F041ADF57A7D2B4802AF32
:106AD00001F069FC054600284AD1294B07F1540012
:106AE000FB62284B07F5BE763B63274B78607B63E0
:106AF000264B3E60BB63264BE846FB63254B07F104
:106B000008043B64244B7B64244BBB64244BFB6430
:106B1000244B3B65244BBB60244BFB60244B3B6107
:106B2000244B7B61244BBB61244BFB61244B3B62B8
:106B3000244B7B62244BBB6206F0F8FD304606F026
:106B4000F7FD2946284607F0EBFAC1B2CB1D03F446
:106B5000FC73ADEB030D02AD284607F0E1FA00949B
:106B6000064829463A4607F12C0301F023FCC546A6
:106B700007F57877BD46BDE8F08100BF70070020BB
:106B8000B5680008116900089D6A0008A96A000834
:106B90009567000831D10008016600089D6500086E
:106BA00081D80008F57500084565000851650008A2
:106BB00021660008716500087D650008E16F000826
:106BC000C165000825D7000829D70008014802F050
:106BD0001DBC00BF7007002010B5064C23783BB1E8
:106BE000FFF7F4FF20B9044B1870044B18702070A5
:106BF00010BD00BF14120020161200201512002034
:106C0000F0B502208DB0014602AF112206F003FE5E
:106C1000041E6E462EDB0020014607F081FAC1B249
:106C2000CB1D03F4FC73ADEB030D02AD284607F05A
:106C300077FA294607F1140001F015FD0223BB8005
:106C40001623BB7101223323FB71BA72E023BB22EE
:106C50003B72FA7200233A1D7B720092102201925D
:106C600007F114011322204606F0DEFD204606F04F
:106C7000D0FDB5462C37BD46F0BD000013B50F481A
:106C800001F094FB0D4802F04CF8044690B9FFF770
:106C9000B7FF0A4801F0AEFF084801F05FFE684602
:106CA000082106F093FA28B9054869463C220123D9
:106CB000FFF7A2FD204602B010BD00BF7007002004
:106CC0009F8E010810B50F4C94F8B03B1BB1013BEF
:106CD00084F8B03B10BD0C4AD4F8B43B02EB8303FC
:106CE000586F01F08DFAE72001F0BEFA642384F8B2
:106CF000B03BD4F8B43B0133062BC8BF0023C4F823
:106D0000B43B10BD340500203C6001082DE9F04182
:106D1000304B86B000930220002340F2FA212E4A25
:106D200001F0FCF901210622022006F074FD2B4B34
:106D300004468DE8180002204FF43F71264A0023D4
:106D400001F0ECF9002C40DB3523022600258DF8FC
:106D50000B304FF4FA5008238DF80C308DF80D30BD
:106D60008DF80E308DF80F30ADF808608DF80A50B0
:106D700006F0E8FF1A4B8046009330462B4640F25F
:106D80001231154A01F0CAF902A91022204606F074
:106D9000DEFC144B07464FF445710F4A8DE888001E
:106DA00030462B4601F0BAF9404606F0CBFF0E4BB9
:106DB0003046009340F21D31074A2B4601F0AEF9F0
:106DC000204606F026FD384601E04FF0FF3006B0C1
:106DD000BDE8F081BA8E0108CC600108C18E0108BF
:106DE000D88E0108E08E0108F88E010873B5154BA6
:106DF000154C00932246022040F26F31002301F02F
:106E00008DF9124B124E224600934FF45E7100230F
:106E1000022001F083F9D6F8A40B06F0FAFC0D4B22
:106E200005468DE82800022040F27A3122460023F0
:106E300001F074F9084B28461B68C6F8A43B02B061
:106E400070BD00BF53910108E0600108F88E010891
:106E500034050020FE8E0108F0870108F0B5474B8D
:106E6000ADB0474C0093D4F8A43B40F22731454ADB
:106E700001930220002301F051F9FFF7B7FF012130
:106E80000622022006F0C7FC3F4BC4F8A40B40F2D8
:106E90002E31009301903B4A0220002301F03EF97D
:106EA0000223ADF80C3016238DF80E300BA83323D7
:106EB0008DF80F3006F02AFC002302939DF82C3049
:106EC00026463BB1012B14D0304B07AC03F1100721
:106ED000224602E00C9B029310E018685968254690
:106EE00003C50833BB422C46F7D10FCA0CAC84E86B
:106EF0000F000A25029B0BB9013D04D1029B63B927
:106F0000234B029309E00CA87E210DF076F802AA2B
:106F100081B20CA806F066FBECE7029B4FF4FA5036
:106F20001A0E8DF810201A0C8DF811201A0A8DF8FF
:106F300012208DF8133006F005FF164B054600931E
:106F40000220002340F265310E4A01F0E7F803A960
:106F5000D6F8A40B102206F0FAFB0F4B04468DE87E
:106F6000180040F26731074A0023022001F0D6F8EA
:106F7000284606F0E7FE20462DB0F0BD0F8F010831
:106F800034050020F7600108238F0108508F0108A5
:106F900004E5D036D88E01083B8F01082DE9F04179
:106FA0000E4B804693F864710024BC4211DA14251C
:106FB00065430A4E414606F5B67028440C220DF092
:106FC00006F820B9354495F87801BDE8F081013420
:106FD000EBE74FF0FF30BDE8F08100BF3405002043
:106FE00008B5FFF7DBFF0138082804D8034B184425
:106FF00090F8CF0008BD022008BD00BF3C6001082A
:107000002DE9F04705460E4692461F4600F0B7F8B8
:10701000002481463FB100F0B2F8C9EB0000B8424D
:1070200001D9BDE8F0872B6828461B6998470028DE
:10703000F0DD2B6828465B6998475445C1B203D1FF
:1070400000233370BDE8F0870D29F9D00A29F7D065
:10705000082901D07F2905D1002CDBD006F1FF38AB
:10706000013C03E006F10108317001342B68284629
:107070009B68E4B298474646CCE7000037B50C4C15
:10708000002104F6B8350B4600910A46284600F068
:1070900035F90849084A28460CF04AFD04F50F70F6
:1070A00001F06CF9054B1B68C4F8A43B03B030BD7C
:1070B00034050020055A000890130020F0870108CD
:1070C00010B5044600F0B8F930B1A4F10D039BB23D
:1070D000022B01D8002010BD00F0DEF808B1012C11
:1070E000F8D9074800F0D6FA38B1A4F1120080B2FE
:1070F000012894BF0020012010BD012010BD00BF59
:1071000054110020142838B504460D460AD8FF292A
:1071100008D0FFF7D5FF28B120462946BDE8384002
:1071200006F09EB838BD38B504460D4606F08CF81A
:10713000FF2810D0421ED2B2022A0CD9062800D154
:1071400038BD2046FFF7BCFF28B120462946BDE8E0
:10715000384006F0F3B838BD10B5044606F074F8B0
:107160000438C0B2012808D92046FFF7A9FF20B192
:107170002046BDE8104006F0FBB8002010BD06F028
:107180007FBB06F06DBB000030B54FF47A7385B05D
:10719000174C0093236805460344236006F070FBF8
:1071A000019005F0FFFF06F06BFB0290029A019B35
:1071B000D31A0393039B039BAB4216D20D4B1B7850
:1071C000002BEED1039A009B9A4203D22368B3F5B9
:1071D0007A7FE6D3039B03F57A73009300F088FC73
:1071E000054B1B78002BF9D1DBE705B030BD00BFA4
:1071F00020120020251200201612002013B5084C82
:10720000002100910A460B46204600F077F8054918
:10721000054A204602B0BDE810400CF089BC00BF12
:10722000F8100020055A000890130020F8B5054614
:1072300016460C468F18BC4206D02B6828469B6821
:1072400014F8011B9847F6E73046F8BD014B036080
:10725000704700BF6061010810B5034B044603602E
:1072600006F094FF204610BD60610108084606F054
:10727000CFB806F0E3B806F0E9B806F0F7B806F0C4
:1072800003B90000002242604FF47A728260014A22
:10729000026070472061010806F0F8B810B5054C8F
:1072A0002046FFF7EFFF20460349044ABDE810409F
:1072B0000CF03EBC001100204D720008901300201D
:1072C0002DE9F041002407460E4625463B19197961
:1072D0000A22304600F0ACF82E218046304600F0FD
:1072E00062F801344044032C0544EFD13046F9796B
:1072F0000A2200F09DF82844BDE8F08130B5837182
:10730000034D9DF80C30056001714271C37130BDB1
:10731000486101080548064B06490360064A0023F8
:10732000037143718371C3710CF002BC1011002012
:1073300048610108055A000890130020014B0360C2
:10734000704700BF60610108F8B506460C468F180B
:107350000025BC4207D0336830469B6814F8011BF7
:1073600098470544F5E72846F8BD000010B5034BE3
:107370000446036006F00AFF204610BD6061010864
:1073800038B505460C46084641B10CF018FE2B688E
:107390000246DB6828462146984738BD38BD08B507
:1073A000FFF7EEFF08BD08B503689B68984708BD66
:1073B00038B50D210546FFF7F6FF0A210446284699
:1073C000FFF7F1FF204438BD38B50446FFF7D8FF7A
:1073D00005462046FFF7ECFF284438BD30B50023B2
:1073E0008BB08DF82430012A98BF0A220DF12304B6
:1073F000B1FBF2F303FB1211CDB2092D94BF30356E
:107400003735EDB2214604F801590BB11946EFE7C3
:10741000FFF7B6FF0BB030BD10B522B90268C9B294
:107420009268904710BDD2B2BDE81040FFF7D6BFBA
:10743000FFF7F2BF0CF0BABC06F000BA13B5084C67
:10744000002100910A460B462046FFF757FF0549E9
:10745000054A204602B0BDE810400CF069BB00BFF1
:1074600018110020055A00089013002010B504469A
:1074700000680CF0B1FB204610BD10B50446006852
:1074800008B10CF0A9FB00232360A360636010BD6A
:1074900038B504460D46006801310CF0EBFC10B124
:1074A00084E82100012038BD10B50368044613B1FB
:1074B00043688B4207D22046FFF7EAFF20B1A3685A
:1074C0000BB922681370012010BD70B50E4611462D
:1074D00004461546FFF7E8FF18B92046FFF7CDFF31
:1074E00004E0A560206831460CF061FD204670BDC7
:1074F00038B50023044603604360836003730D4680
:1075000039B108460CF05BFD294602462046FFF7DC
:10751000DCFF204638BD884210B50B46044607D034
:10752000096819B19A68FFF7D0FF01E0FFF7A5FFDE
:10753000204610BD10B500230446036043608360FD
:107540000373FFF7E8FF204610BD70B50446856859
:107550000E4609B9002070BD62B115442946FFF7F7
:10756000A3FF0028F6D02068A368314618440CF029
:107570001EFDA560012070BD07B500238DF8041025
:10758000012201A98DF80530FFF7DFFF03B05DF898
:1075900004FB000010B5164C94F92C3033B394F86A
:1075A0002D301BB306F0C6F894F82C3094F82D104B
:1075B0005AB2002A91FBF2F206DD012A0BDC013BF4
:1075C00084F82C30002307E0013204DB013384F817
:1075D0002C30022300E0012394F82D201844013AB6
:1075E00084F82D20BDE8104006F0A6B810BD00BFFD
:1075F0002411002010B5044606F09CF8001B00F191
:107600007F02FE2A04D92046BDE8104006F094B857
:10761000054A80EAE073A3EBE0735B0082F82C007C
:1076200082F82D3010BD00BF24110020014B0360F3
:10763000704700BF6061010810B5034B044603604A
:1076400006F0A4FD204610BD60610108007C06F034
:1076500015BA007C06F03ABA007C06F01DBA007C30
:1076600006F048BA007C06F087B9000010B5044661
:10767000002060604FF47A70A0600548217420609B
:10768000084611461A4606F053F9204610BD00BFC1
:1076900078610108007C06F04DBA000010B5084C76
:1076A000002104F11402204604F15603FFF7DEFF27
:1076B00020460449044ABDE810400CF039BA00BF26
:1076C000541100202D760008901300207047000010
:1076D000014B0360704700BF6061010810B5034BA8
:1076E0000446036006F052FD204610BD60610108AB
:1076F000002006F089BA012006F086BA08B506F027
:107700006FFA08BD08B5084606F0A2FA012008BDC8
:10771000002242604FF47A728260014A0260704730
:10772000A061010808B5002006F052FA014B0022C2
:107730001A6008BDEC11002038B5064D0C462B68C8
:107740008B4205D0FFF7EEFF204606F041FA2C6091
:1077500038BD00BFEC11002010B5054C2046FFF7E6
:10776000D7FF20460349044ABDE810400CF0E0B9B9
:10777000F0110020D176000890130020704700001F
:10778000054B1B7803F0FF0023B1044B1878003041
:1077900018BF0120704700BF2C12002012120020D9
:1077A00008B5FFF7EDFF48B1054B01221A70054BF4
:1077B00000221A70BDE8084006F065BB08BD00BF96
:1077C000351200205300002038B50B4C237803F00D
:1077D000FF057BB906F0FAFA084A012323701570F9
:1077E000074AFF20137000F005FDBDE83840E72090
:1077F00000F03ABD38BD00BF2C1200202512002039
:107800005200002010B5104B1A781C46D2B106F079
:10781000F1FA0E4A117801F0FF0019B90123137033
:107820000B4B18700B4B002222701A700A4B01226E
:107830006FF07F401A7000F0DDFCBDE81040E720DB
:1078400000F012BD10BD00BF2C1200202512002038
:10785000530000201212002052000020084B1B7819
:1078600003F0FF0053B1074B1B7833B9064B187870
:10787000D0F1010038BF002070470020704700BFE2
:107880001812002051000020500000202DE9F04780
:107890001F46234B88B01B78804689461446109EAD
:1078A000002B39D01378002B34D0012E06D11D4B7C
:1078B0001B7803F0FF055BB100E05446F6B200967A
:1078C00040461FFA89F12246BBB206F0E7FA23E0F0
:1078D00010460CF074FB0DF1100A4708294650467B
:1078E0000E228DF80E500CF0C0F9BD4204F10204D6
:1078F000E3D014F8023C03A88DF80C3014F8013CD6
:10790000002110228DF80D300CF010FC0AF8050053
:107910000135EAE71E46D1E708B0BDE8F08700BFB1
:107920002C1200205100002008B506F013FAD0F107
:10793000010038BF002008BD10B5FFF721FF044645
:1079400038BB144B187006F037FA134B01221A702B
:10795000124B1C7006F054FA08B106F00DFB104BE8
:107960001B784BB9FFF7E0FF30B90E4B01221A70BC
:10797000BDE8104006F060BA0B4B00224FF47F4088
:107980001A7000F037FCE72000F06EFC06F04EFAAB
:10799000EEE710BD351200202C1200202512002029
:1079A00034120020181200205200002008B506F002
:1079B000D5FAD0F1010038BF002008BD37B50B4C17
:1079C00000210B4D0B4600910A462046FFF796FC1E
:1079D0002A46204607490CF0ABF8074904F1080095
:1079E0002A4603B0BDE830400CF0A2B800120020D7
:1079F00090130020055A00087D7700080A4BF7B560
:107A0000164601220C461A7005460CF0D8FA0746B5
:107A100020460CF0D4FA0096034639462846224602
:107A2000FFF734FF03B0F0BD5000002070B5254CC7
:107A3000254D00239EB0FF206B7023702B70637068
:107A4000A370E37023716371A371AB7000F0D2FB7C
:107A5000E72000F009FCFFF7A3FEFFF7B5FE06F0F4
:107A600097FA6846194900F023FAFFF7F7FEC8B104
:107A7000E3796BB11A26013E06D0E72000F018FC2E
:107A8000322005F0B3FBF6E7FFF790FFE671ECE775
:107A9000E72000F00DFCFA2005F0A8FB684600F096
:107AA0003DFAE2E7E72000F0DFFB06F085FA6B78AD
:107AB0000BB106F0FBFAFFF73FFF002323721EB065
:107AC00070BD00BF1012002050000020FD7900089A
:107AD00008B5064BD86006F089FAFEF70FFE08B924
:107AE000FFF72AFFBDE80840FEF7ECBF10120020A8
:107AF00073B59B4C05F056FB00232361237D43B9EE
:107B0000637D33B9A369EBB1FFF739FBA3699842F1
:107B100018D3237F924DEBB1924B02200093C421E6
:107B2000914A002300F0FAFA00236B70AB61AB704E
:107B30002B622B752B772B716B71AB716B77FFF70A
:107B400061FE07E0237F864D23B995F82430FBB111
:107B5000FFF7F2FE237A824D13B1FFF767FF06E0CD
:107B600095F824301BB1AB7803F0FF06DBB1237826
:107B70007B4D012B05D1AB78012B02D16B78012B0A
:107B800019D0A378764DDBB16B7D002B6ED017E05A
:107B900095F82530002BDBD1FFF7F1FA00F5EA402C
:107BA0003030A861D4E7AE61FFF7FAFD06F048FA7D
:107BB00085F82460DBE706F007FA00232B70E0E786
:107BC00094F8263023B1694800213A220CF04DF890
:107BD000674BDA781E463AB92379002B52D1604BB5
:107BE0005B79002B4ED1B9E0A2785D4BBAB15A7DDA
:107BF000AAB91A79002A59D011E006F033FA002503
:107C00004FF6FF70B57000F0F5FAE72000F02CFB9E
:107C1000FFF724F9A84267DB25620123237123794A
:107C20004F4D002B00F09A806B79BBB9FFF726F817
:107C3000002811D002DA4FF47F0007E0012801D1BB
:107C40004C4803E0022803D14FF0FF1000F0D2FAB5
:107C5000E72000F009FB01E001236B71A379002B01
:107C600077D1FEF74BFD022873D177E095F82630E7
:107C7000002BADD1642005F0B9FA05F1260006F01D
:107C800007FAA5E7FFF7B2F80023A3716371237128
:107C900094F82530002B61D14FF47F4000F0AAFA10
:107CA000E72002B0BDE8704000F0DEBA5B7F002B39
:107CB000A5D04FF47F0000F09DFA637F284D002B84
:107CC0009BD0E72000F0D0FA4FF4FA7005F08EFA5E
:107CD000E72000F09BFA4FF4FA7005F087FA6B7F0B
:107CE000013BDBB26B77E8E7217D1D4A01F0FF0322
:107CF000002933D1116A0131022911620AD1012010
:107D000010751D4A01910092042040F23F11164A5D
:107D100000F004FAFEF7FAFF002813DA236A0133B1
:107D2000022B23620CD10E4A01211175124A042044
:107D30008DE80C004FF4A4710B4A002300F0EEF91B
:107D4000022300E003236377607F06F097F90023A6
:107D500064E702B0BDE87040FEF73EBF02B070BD00
:107D600010120020608F0108C06101083612002047
:107D7000500000200060FF00728F0108044B0122B8
:107D80005A70044B1A70002283F82420704700BFF9
:107D9000500000201012002010B5064C0123637023
:107DA00094F825302BB9FFF7EAF900F5EA403030B6
:107DB000A06110BD1012002070B5194C194E6378E7
:107DC00063B194F825302BB9FFF7D9F900F5EA40F3
:107DD0003030A0610123B370FF200CE0237A03F060
:107DE000FF056BB9FFF7CBF900F5EA403030A06131
:107DF000B5704FF47F4000F0FDF9E72000F034FA51
:107E000000250123FF206570A57025716571A5719E
:107E1000B37000F0EFF9E72000F026FA657770BD47
:107E2000101200205000002008B5094B70B100224C
:107E30009A6101229A70074B4FF47F409A7000F0CC
:107E4000D9F9BDE80840E72000F00EBA987008BDE7
:107E50001012002050000020014B0122DA70704700
:107E600010120020044B1B68984204D1034B0022DF
:107E70009A715A711A717047D810002010120020A0
:107E800013B5084C002100910A460B462046FFF727
:107E900035FA0549054A204602B0BDE810400BF00E
:107EA00047BE00BF70120020055A00089013002042
:107EB00038B504460D46FFF72BFC204625614FF4EC
:107EC0001651FFF739FC204638BD70B506460D4601
:107ED000002428460CF073F8844208D2295D30460D
:107EE000FFF710FC012005F081F90134F1E770BDC6
:107EF00010B500230446FFF783F820460649FFF734
:107F0000E4FF2046FFF7FAFB002803DD2046FFF7D9
:107F1000EFFBF6E710BD00BF51910108F0B595B039
:107F20000446FFF7EBFB002840F3BC802046FFF738
:107F3000DFFBC0B2772868D104F1140600212122AA
:107F4000304604F135050BF090FE41220021284611
:107F50000BF08BFE04F17607002384F87630204680
:107F600051497B70FFF7B1FF204631462022FFF7D1
:107F7000BFFF20464D49FFF7A8FF012220463946A2
:107F8000FFF7B6FF94F87630A3F13002D2B2032A9D
:107F9000EFD8312B0BD120464549FFF796FF2046FD
:107FA0004449FFF792FF20464349FFF78EFF94F8BC
:107FB0007620B2F1300708D020464049FFF785FF10
:107FC000204629464022FFF793FF20463C49FFF711
:107FD0007CFF23693A46304629469847204639496E
:107FE000FFF773FF20463849FFF76FFF20463749F8
:107FF000FFF76BFF20463649FFF767FF20463549FC
:10800000FFF763FF2046344944E0692812D1204637
:108010003249FFF75AFF05A8FEF70AFD20460599E9
:10802000FFF753FF20462E49FFF74FFF05A8FFF744
:108030001DFA37E06D2830D12A492046FFF745FF69
:1080400005A806F025F8012201A80AA9FEF7C6FC3A
:1080500020460199FFF739FF01A8FFF707FA0DF154
:10806000290520462049FFF730FF012201A82946B3
:10807000FEF7B4FC20460199FFF727FF01A8FFF7A0
:10808000F5F96E1C0DF12E039E4201D03546E8E74E
:1080900013492046FFF719FF04E0662802D1204665
:1080A000FEF732FB15B0F0BDA58F0108AC8F0108BB
:1080B000D98F01080F9001083A90010880900108BB
:1080C0008B900108CE900108EE90010821910108E3
:1080D0005491010893910108C4910108DA910108B3
:1080E00051910108EB9101084B92010813B5084C1E
:1080F000002100910A460B462046FFF7FFF805498C
:10810000054A204602B0BDE810400BF011BD00BF8B
:108110007C120020055A0008901300202DE9F04140
:10812000A4B02AAC54F8045B80460E46174605946A
:108130002BB118462F210BF06DFF441C00E0184CAA
:1081400005F09EFB174A034652F8282002948DE85A
:108150008400039606A87821134A0BF0E9FE134C1D
:1081600006463CB106A8FDF70BFE782E02D9104852
:10817000FDF706FE2A4606A87821059B0CF07EFD39
:10818000054654B106A8FDF7FBFD782D02D9084835
:10819000FDF7F6FD0748FDF7F3FD24B0BDE8F081DB
:1081A00053910108D861010806920108815D000819
:1081B000568D01085191010810B5044B1C784443B9
:1081C00006F0C4FD6043000C10BD00BF5500002048
:1081D00038B50546C0F307400C46FFF7EDFF208099
:1081E000C5F30720FFF7E8FF6080E8B2FFF7E4FF80
:1081F000A08038BD014B1860704700BF841200207A
:10820000014B5860704700BF8412002008B510B1C0
:10821000E72804D008BDBDE8084006F081BD002075
:108220000246014606F06AFD024B00225A70012206
:108230009A7008BD55000020024B0122E7201A72F7
:10824000FFF7E4BF841200200346598800889A880B
:1082500006F054BD07B56946FFF7BAFF6846FFF759
:10826000F3FF03B05DF804FB08B510B1E72805D0B3
:1082700008BD0120BDE8084006F052BD064B1A7A41
:108280000AB1586800E01868FFF7E4FF034B632267
:108290005A70FF229A7008BD8412002055000020F9
:1082A000024B0022E7201A72FFF7DEBF8412002083
:1082B00013B510B1E72803D01EE006F03DFD1BE02A
:1082C0000E4B1A7A0AB15C6800E01C68684606F03A
:1082D0001DFDBDF80220BDF800301343BDF8042099
:1082E00013439BB22BB100200146024606F006FD67
:1082F00002E02046FFF7AEFF02B010BD841200205E
:1083000013B5044608466946FFF762FFADF1020364
:1083100001AA598863206143B1FBF0F123F8021FE1
:108320009342F6D16846FFF78FFF02B010BD000000
:108330000C4B5A780AB9012102E0632A01D1FF21CE
:1083400099709978E7280A44D2B25A7008D1064B3E
:10835000197A09B1596800E019681046FFF7D0BFD3
:10836000704700BF5500002084120020024B187A8D
:10837000003018BF01207047841200204FF4207293
:108380000260002280F8962680F8972680F89826CA
:1083900000F2D962C0F86429C0F8602900F65912C9
:1083A000C0F85C29704790F897067047002380F862
:1083B000983670472DE9F04104460F4690465168C3
:1083C00010304FF493721D46069E0BF02AFCD8F82D
:1083D00000104FF4197204F59B700BF022FC3B68FF
:1083E00004F2DC4063607B680021A360BB684FF44B
:1083F000A872E36004F2D963C4F86439C4F8603940
:108400002368234403F2D963C4F85C392B68C4F8A9
:10841000B4346B68C4F8B834AB68C4F8BC34EB68E7
:10842000C4F8C0342B69C4F8C4346B69C4F8C834C8
:10843000AB69C4F8CC34EB69C4F8D0342B6AC4F807
:10844000D4346B6AC4F8D8343368C4F82C367368F3
:10845000C4F83036B368C4F83436F368C4F8383634
:108460003369C4F83C367369C4F84036B369C4F85C
:108470004436F369C4F84836336AC4F84C360BF016
:10848000F4FB012384F89736BDE8F0812DE9F04133
:10849000D0F8D43405468846164698470024074647
:1084A000A64215DDD5F8B43408EB0400311B98471B
:1084B000002810DB01D00444F2E7D5F8D434984703
:1084C00044F62063C01B9842EAD94FF0FF3002E027
:1084D0002046BDE8F081BDE8F0812DE9F041D0F8FB
:1084E000D434054688461646984700240746A642D7
:1084F00015DDD5F8B83408EB0400311B9847002887
:1085000010DB01D00444F2E7D5F8D434984744F6A0
:108510002063C01B9842EAD94FF0FF3002E02046AA
:10852000BDE8F081BDE8F0812DE9F04786B002AEEC
:1085300080460D4692460C4601F11003B146206874
:108540006168374603C708349C423E46F7D108F5B8
:108550006776304608F5CA61802208F5CE6801F0DA
:1085600059F930464346009501950021524601F0E5
:10857000FDFD4C46434606AE224603CAB242186091
:108580005960144603F10803F6D12B78284603F00E
:108590000F032B445C7903F014FA04283FD8DFE87A
:1085A00000F0050C273603000C203FE0642C38D087
:1085B000762C0CBF03200F2038E0662C10D006D894
:1085C000632C13D0652C09D0452C28D106E0732CE0
:1085D00008D0752C08D0682C21D124E0082025E093
:1085E000022023E0042021E005201FE007201DE0F9
:1085F000732C06D0752C18D06B2C0CBF09200F20C3
:1086000014E02B7A002B0CBF0B200A200EE028462A
:1086100003F0EFF900280CBF0E200D2006E00F201C
:1086200004E0012002E0002000E0062006B0BDE8E2
:10863000F08741230B7001234B70B0F8883601336B
:108640009BB21A12A0F888368A70CB7090F88A36DE
:108650000133DBB280F88A360B71B1234B7174237E
:108660008B7107207047502303700223437000234F
:108670008370C370B123037168234371FF23837137
:108680000B68C0F807304B68C0F80B308B68C0F837
:108690000F3013207047F7B5054600F567760C4696
:1086A000174605F5CA613046802205F5CC6500F015
:1086B000B1FF01212B460094019430463A4601F067
:1086C00055FD214604F1100351F8042B994245F859
:1086D000042BF9D103B0F0BD38B5B0F888360C469C
:1086E00001339BB25021A0F88836217002216170BD
:1086F000E3701912B12323716823A170637164219F
:10870000FF23A371E3712372A172002303210546A5
:10871000227363720A46E37204F10D000BF0A5FAAE
:10872000284621461022BDE83840FFF7B4BF38B5CF
:108730000C46B0F888160546013189B2A0F88816B3
:108740002271FF22627151201A162070A2714420FA
:108750001A146070E1700812E27106211A12A070FA
:10876000227263720A4604F10A000BF07EFA284670
:1087700021461022BDE83840FFF78DBF70B50C468A
:108780009DF81410054661269DF810002670A37010
:10879000A17145260921FF23E070227166700A4607
:1087A0006371E01D0BF061FA284621461022BDE8F6
:1087B0007040FFF770BF70B50C460599A370FF239A
:1087C00063710B160546A3719DF810000B1461260A
:1087D0002670E37161720B1245260621E07022714A
:1087E00066700A46237204F10A000BF03EFA28462E
:1087F00021461022BDE87040FFF74DBF70B50C4612
:1088000004A9054611F8080BA370FF2363716126C4
:108810000B462670E070452603CBC4F80A100221EF
:108820002271C4F806000A46667004F10E000BF0CF
:108830001CFA284621461022FFF72DFF70BD70B5A7
:108840000C46A3709DF81030069D61212170E370E5
:108850004521FF23637106466170227105992A46FE
:10886000A01D0BF0DEF9A81D20F00F051035291A08
:10887000C9B20A4620440BF0F8F9304621462A4690
:10888000FFF709FF284670BD2DE9F0410D46B0F80D
:10889000881600F2DB66013189B204461346A0F85F
:1088A00088162A46304600F086FE20F00F0707F1B2
:1088B00010055FFA85F8C0EB0801C9B220440A46EA
:1088C00000F2DB600BF0D1F9204631462A462D0A32
:1088D000FFF7E1FE84F8D95684F8DA86204604F2E0
:1088E000D96107F11202FFF7D1FDC043C00FBDE807
:1088F000F0812DE9F0410D46B0F8881600F2DB66F4
:10890000013189B204461346A0F888162A4630463B
:1089100000F068FE20F00F0707F110055FFA85F8F8
:10892000C0EB0801C9B220440A4600F2DB600BF03C
:108930009CF9204631462A462D0AFFF7ACFE84F802
:10894000D95684F8DA86204604F2D96107F112027A
:10895000FFF79CFDC043C00FBDE8F08170B5054630
:1089600000F2DC4400F22C66236C6BB194F84530C5
:108970002846214623B104F14502FFF785FF03E0B5
:1089800094F84420FFF7B5FF5434B442ECD170BDE5
:1089900038B5B0F888360C4601339BB24021A0F8B8
:1089A0008836217001216170E3701912B12323719F
:1089B00063236371FF23A170A3710721131205467E
:1089C0002272E3710A4604F109000BF04EF92846C1
:1089D00021461022BDE83840FFF75DBE2DE9F8437F
:1089E0000C46A3709DF820302271E370FF23637161
:1089F0003B4B61211A689B88217045216170C4F846
:108A000006206381D0F82C360646984704F10C0501
:108A1000814600274F4518DA17B12C2305F8013B92
:108A20004FF0220805F8018B28463946D6F8303633
:108A3000984728460BF0C3FA0C28A8BF0C202A1828
:108A400005F800800137551CE4E7264B07351A6806
:108A5000002745F8072C9A889B7925F8032C05F800
:108A6000013CD6F8383698478046474521DA17B199
:108A70002C2305F8013B222305F8013B3946D6F8A3
:108A80003C362846984728460BF099FAD6F84036E7
:108A90008146284698471449B9F10C0FB4BF4A469D
:108AA0000C220988AB183030A95201379870DD1CB0
:108AB000DBE70E4B28461B8820F8023B011B21F008
:108AC0000F071037791AC9B20A460BF0CEF83046B4
:108AD00021463A46FFF7DFFD3846BDE8F88300BF80
:108AE0003B920108429201084A9201084D92010806
:108AF00038B5B0F88836402201339BB2A0F88836EA
:108B00000A7000224A701A1205460C468A70CB7011
:108B1000081D0C210A460BF0A8F828462146102211
:108B2000BDE83840FFF7B7BD2DE9F04122F00F0650
:108B300006F11005EFB20C46B91A8046C9B2901C76
:108B400020440A460BF091F840462A46A11C2D0A03
:108B5000FFF7A1FD2570677006F11200BDE8F081F6
:108B60002DE9F3479A4690F8983604468946904690
:108B70000BB1002037E01D4DD0F8D4342F68984752
:108B80001B4E46F827002F6807F1010C05279CFBB8
:108B9000F7F707EB8707C7EB0C0756F827302F606E
:108BA000C01AB0F57A7FE4D3B4F888169DF828305F
:108BB000013189B2A4F8881601934A464346CDF89C
:108BC00000A004F2DB6000F09EFC04F2D9650246CE
:108BD00029462046FFF7A8FF294602462046FFF710
:108BE00055FCC043C00F02B0BDE8F08790120020D2
:108BF0005800002038B590F89836044693B900F232
:108C0000DB61FFF716FD04F2D965024629462046CE
:108C1000FFF78AFF294602462046FFF737FCC0438C
:108C2000C00F38BD002038BD38B50C46B0F88816E6
:108C30000546013189B2A0F888166370E1700B1205
:108C400051200B2120702271A3700A46601D0BF089
:108C50000CF8284621461022BDE83840FFF71BBD1E
:108C60004423FFF7E1BFF0B591B0044606AA00F532
:108C70009B700D4602F0A2FF00284CD1284606A9A1
:108C800001AA02F0E4FE05F1800004F1100101AA3E
:108C900002F008FF054600283FD106AE04F5CA627F
:108CA0000AAF334603CBBB42106051601E4602F14F
:108CB0000802F6D1BE4604F5CC620EAE734603CB75
:108CC000B342106051609E4602F10802F6D104F5ED
:108CD000CE623B4603CBB342106051601F4602F1A7
:108CE0000802F6D1334603CB9DF838209DF8393081
:108CF000C4F8800643EA0223DDF83B00A4F8883676
:108D00009DF83A300090C4F8841684F88A360098AA
:108D100002F055FE02E0012500E00225284611B0D0
:108D2000F0BDF0B5024652F8043F00F2D965C0F834
:108D300001375368ABB0C0F8053793682946C0F8CF
:108D4000093728220446FFF7C8FB00283DDB03A8AB
:108D500004F1100104F20D7602F086FE009603A8DD
:108D6000002134222B4601F03BFB074603A801F00B
:108D700053FC3FBB31464FF480722046FFF786FB21
:108D8000204629464FF4C072FFF7A7FB00281CDBE2
:108D900020462946FFF767FF0646A8B9102384F846
:108DA000DA3684F8D906D4F84836984704F2DB61FD
:108DB00002462046FFF790FC204629461222FFF784
:108DC00065FB01E0384600E030462BB0F0BD38B519
:108DD0000C4660212170002161700C210546A270B3
:108DE000E3700A46201D0AF040FF28462146102263
:108DF000BDE83840FFF74FBC70B50C469DF8141025
:108E000005469DF81000E17061260B21A0702271CB
:108E100026700A466370601D0AF027FF2846214627
:108E20001022BDE87040FFF736BC2DE9F04FD0F8B6
:108E3000D4348BB006469847002386F8963696F8C9
:108E4000D95696F8DA36C6F88C0643EA0525336813
:108E50009D4251DC06F2D968304641462A46FFF76A
:108E60003CFB002848DB304641462A46FFF75CFBC6
:108E70007419814696F8DD7604F2D9640E2800F262
:108E8000C182DFE810F093020F0021008A006F0119
:108E90006F01BD011101DD01BF025402730297028F
:108EA000BF02A90296F8DC2696F8DB36304600921F
:108EB00006F2DB613A46FFF791FD0312024686F89F
:108EC000D93686F8DA06EBE04FF000081023354477
:108ED00085F8D98604F1020A63703046514696F847
:108EE000DB2696F8DC36FFF772FF30462146122269
:108EF000FFF7CCFA404501DA002084E241460D221A
:108F000006A80AF0B2FE96F8E09606A809F00F0946
:108F10004A4606F2E1610AF084FE09F10803F218FC
:108F200092F8D98608F00F08B8F10D0F0AD109F1AF
:108F30000903F21892F8D98608F10D08B8F13F0F2D
:108F4000DADC02E0B8F10E0FD6D006F2996CF11817
:108F50004246604601F2DA610AF063FE4FF0000912
:108F600006EB0803844683F899966146D6F83436B2
:108F700006A898471022034685F8D99630466270B5
:108F800051463A46FFF7D3FB304621461222FFF7FF
:108F90007DFA484580F23682AEE796F8E04606F262
:108FA000E16104F00F040C2CA8BF0C24224606A893
:108FB0000AF037FE06A80021C4F10D0220440AF091
:108FC00054FE002386F8D936102386F8DA3606A830
:108FD000D6F840369847012811D1D6F8443606A86D
:108FE000984796F8DC2696F8DB360092027806F26F
:108FF000DB61019230463A46FFF7C0FB4AE00228A7
:1090000011D1D6F8443606A8984796F8DC2696F88B
:10901000DB360092026806F2DB61019230463A4686
:10902000FFF7C9FB36E004281FD1D6F8443606A85E
:10903000984733680446A3F112050AF0C0FF96F87A
:10904000DC2696F8DB3606F2DB618DE81400A842D8
:10905000D4BF029002953A463046FFF7F0FB86F8FF
:10906000DA06001286F8D90614E0092812D1D6F8DB
:10907000443606A8984796F8DC2696F8DB36009228
:10908000D0E9004506F2DB61CDE9024530463A46BB
:10909000FFF7B4FB96F8D92696F8DA3603EB0222EE
:1090A000304641460232A8E1D6F8D43498477319C5
:1090B0000022C6F8900683F8D9261023637004F1C5
:1090C00002083046414696F8DB2696F8DC36FFF774
:1090D0007EFE304621461222FFF7D8F90028FFF61F
:1090E0000BAF96F8E2B696F8E1364FEA0B4B4BEA37
:1090F000036BA5F10D0996F8E436013D35444BEAC2
:10910000030B95F8D91696F8E33606F2E66A4BEAB1
:10911000032B5046D6F8C834C1EB0901984758458F
:1091200019D195F8D916D6F8CC34C1EB09015046BF
:109130009847B6F894360546AB423046414604D2CD
:109140003A464423FFF770FD02E02A46FFF720FC71
:10915000A6F894564EE1304641463A468023FFF742
:1091600063FD47E13544002385F8D9361023637049
:10917000A51C3046294696F8DB2696F8DC36FFF724
:1091800026FE304621461222FFF780F90028FFF61E
:10919000B3AEB9F1040F1FD196F8E20696F8E136A6
:1091A000000440EA036096F8E43696F8E626184391
:1091B00096F8E536120442EA036296F8E83696F825
:1091C000E3E696F8E7161A4340EA0E20D6F8BC34D8
:1091D00042EA0121984702E0D6F8C0349847D6F811
:1091E000D43498470023A6F894360123C6F8900695
:1091F00086F89836304629463A46FFF731FDF9E0C1
:109200004FF000081023354485F8D986637096F82E
:10921000DB363046009396F8DC36A11C01933A46C3
:109220004423FFF7E9FD304621461222FFF72EF9CD
:109230004045FFF661AE86F89886D6F8C434B7E0AC
:10924000731993F8D8767B1EDBB20F2B00F2DA800D
:1092500006F2DF630AA840F8143D02F0DAFB0028AA
:1092600000F0D080059CED1B7719044407F2D96704
:109270000694069BBB4205D3059ABB42C2EB040889
:1092800019D323E01A7812F0F00FF5D106A802F0F6
:10929000C0FB2F2222700699631C8B42804604D0AB
:1092A000184642460AF0C6FC0346069A03EB080439
:1092B00042440692DDE71B7803F0F003302B05D122
:1092C00006A802F0A6FB069B18440690069BBB422C
:1092D00008D21A78FF2A05D15F1C3544002385F88F
:1092E000D93600E00027059B002503F8085006F258
:1092F000DC44236C002B00F08580204640210AF0DE
:109300007CFE804502460FD3DDF814902046494686
:109310000AF078FC40B9542303FB05664846D6F8AA
:109320001C35394698476DE001355434E1E7002398
:1093300086F8D936102386F8DA3696F8DB363046CA
:10934000009396F8DC3606F2DB6101933A4644233B
:10935000FFF752FD304641461222FFF797F80028EA
:10936000FFF6CAADD6F8D03401201DE0102386F8F0
:10937000DA3696F8DB36002486F8D946009396F85C
:10938000DC363046019306F2DB613A464423FFF7B0
:1093900033FD304641461222FFF778F8A042FFF62F
:1093A000ABADD6F8D034204698472BE0D6F84C36F3
:1093B000984727E096F8E02696F8DF36120442EA4E
:1093C000036296F8E23696F8E1061A4342EA002074
:1093D000D6F8D834984715E00023354485F8D936B7
:1093E000102363703046A11C96F8DB2696F8DC3615
:1093F000FFF7EDFC304621461222FFF747F8C04345
:10940000C00F00E001200BB0BDE8F08F70B500F296
:10941000D966D0F8B834044602213046984701286E
:1094200004DD2046BDE87040FFF7FFBC002801DAEC
:1094300000254FE094F89856D4F8D4341DB39847DB
:10944000D4F8903640F6B832C01A904201D80125BF
:1094500040E0002384F8D936102384F8DA36204619
:1094600004F2DB61B4F89426FFF792FA2046314605
:109470001222FFF70BF80028DADBD4F8D43498472F
:10948000C4F8900626E09847D4F88C36C01A94F8B1
:10949000963623B142F210739842D8D913E043F6BE
:1094A00098239842D3D9102384F8D95684F8DA3611
:1094B000204604F2DB61FFF71BFB204631461222F7
:1094C000FEF7E4FF012584F89656D4F8D434984783
:1094D000C4F88C06284670BD10B514468AB10C2A13
:1094E00005D800F8012B0AF09CFB601C10BD0D2371
:1094F0000370A2F10D03437002300AF092FBA01C2E
:1095000010BD104610BD2DE9F0411F4650230370D9
:10951000022343700B128370B12303719DF81C303A
:10952000C17000F1060843713F21054610461446FC
:10953000069E0AF062FD214602464046FFF7CCFF38
:109540003C2E08EB000408D0332308F80030331415
:1095500063703312A370E67004346FB13F21384654
:109560000AF04BFD631C0646FF222270184639465E
:1095700032460AF056FB8419601BBDE8F08138B50D
:1095800003464020187001205870D9700812B1218C
:109590001971652198709C1D597115464AB1104684
:1095A0003F210AF02AFD294602462046FFF794FF94
:1095B0000444204638BDF8B507461D46FFF7DFFFD7
:1095C00004466DB13F2128460AF017FD631C06468C
:1095D000FF2222701846294632460AF022FB8419DF
:1095E000E01BF8BD70B51E4605461446FFF7C7FFE1
:1095F0003EB90346412203F8022B752242701846F9
:1096000002E01CB123780BB1401B70BD4FF0FF305E
:1096100070BD0000C02AF0B507D0B2F5807F06D03B
:10962000802A40F0F4800A2302E00C2300E00E239D
:10963000036000F10803436052110024944210DAE1
:1096400001EB8405AE786F78360446EA072611F8F8
:109650002470ED783E4346EA056543F82450013412
:10966000ECE702680C2A37D00E2A72D00A2A40F0A2
:10967000CE8000206649DA6845581C6804306C408A
:10968000C2F307250D4495F8286001EB126595F8A3
:109690002850744084EA0544D5B20D4495F828500A
:1096A000282884EA0564C2F30745294491F8281064
:1096B00003F1100384EA012153F80C4C196081EA8C
:1096C000040153F8084C596081EA040181EA02025E
:1096D0009960DA60CED1F0BD00204D495A694558F5
:1096E0001C6804306C40C2F307250D4495F82860CF
:1096F00001EB126595F82850744084EA0544D5B210
:109700000D4495F82850202884EA0564C2F30745E3
:10971000294491F8281003F1180384EA012153F831
:10972000144C196081EA040153F8104C596081EA25
:10973000040153F80C4C996081EA040153F8084C79
:10974000D96081EA040181EA020219615A61C4D137
:10975000F0BD00242E4AD969A55818680434684021
:10976000C1F30725154495F8286002EB116595F8BB
:109770002850704080EA0540CDB2154495F8285035
:109780001C2C80EA0560C1F30745154495F8285064
:1097900003F1200380EA052053F81C5C186080EA7E
:1097A000050053F8185C586080EA050053F8145C13
:1097B000986080EA0500C5B2154495F8286053F812
:1097C000105CD86086EA050502EB106696F8286002
:1097D00085EA0665C0F307261644C0F30740024435
:1097E00096F8286092F8282053F80C0C85EA062594
:1097F00085EA02421A6182EA000253F8080C5A61B3
:1098000082EA000282EA01019A61D961A2D1F0BD27
:10981000F0610108F0B5C02AC7B0044606D0B2F521
:10982000807F05D0802A5CD10A2302E00C2300E06F
:109830000E23236004F1080363606846FFF7EAFE25
:10984000009B019A1B01D118D3582568A3604B686F
:1098500004F11802E3608B682361CB686361013D0A
:10986000002DA1F110012EDD00201F4B0C5803EB41
:10987000146696F82870E6B21E4496F8286003EB4A
:10988000870703EB8606D7F82871D6F828657E404F
:10989000C4F307271F44C4F307441C4497F82870F7
:1098A00094F8284003EB8707D7F8287903EB840363
:1098B000D3F8284D7E4086EA040313500430102864
:1098C000D3D11032CBE70B68684613604B68536006
:1098D0008B689360CB680021D3604FF48C720AF0E0
:1098E000C4F947B0F0BD00BFF06101082DE9F047B1
:1098F000977854783F0447EA04271478466827434A
:10990000D478557947EA0467346892F809C067400B
:1099100094798146240444EA05241579B0682C43DF
:10992000D57992F80D8044EA056475686C40957AA3
:109930002D0445EA0C2592F808C045EA0C0592F87A
:109940000BC045EA0C6C8CEA000592F80EC0D9F801
:1099500000004FEA0C4C4CEA082C92F80C80D27BA9
:109960004CEA080C4CEA026C06F11002F6688CEA2C
:109970000606002940F0F2814FEA600909F1FF393B
:109980001146B9F1000FF34AF8B240F3FB8002EB45
:109990008000D0F82885086809F1FF3988EA0008B6
:1099A000200E02EB8000D0F82801203188EA000860
:1099B000C6F3072002EB8000D0F8280988EA0008E7
:1099C000C5F3074002EB8000D0F8280D88EA0008B4
:1099D000E0B202EB8000D0F828C551F81C0C8CEAEC
:1099E000000C280E02EB8000D0F828018CEA000C55
:1099F000C7F3072002EB8000D0F828098CEA000C9E
:109A0000C6F3074002EB8000D0F8280D8CEA000C6A
:109A1000E8B202EB8000D0F828A551F8180CC5F385
:109A200007258AEA000A300E02EB8000D0F82801F0
:109A3000F6B28AEA000AC4F3072002EB8000D0F8ED
:109A4000280902EB86068AEA000AC7F3074002EB00
:109A50008000D0F8280D3F0E8AEA000002EB87074D
:109A6000D6F828A551F8146CD7F8287102EB8505B3
:109A7000C4F307448AEA060AD5F8285902EB84049D
:109A80008AEA0706D4F8284D6E4066405FFA88F5EA
:109A90004FEA1C6402EB850502EB8404D5F82875B7
:109AA000D4F828415FFA80FA674051F8104C02EB75
:109AB0008A0A6740C6F3072402EB8404D4F82859C5
:109AC000C0F3074402EB84046F40D4F8285D040E11
:109AD0006F405FFA8CF502EB850502EB8404D4F845
:109AE0002841D5F82855DAF828A5654051F80C4CDE
:109AF000C0F307206C40C8F3072502EB8505D5F8B5
:109B0000285902EB80006C40C6F3074502EB85053F
:109B1000D5F8285DD0F828096C40350E02EB850594
:109B2000D5F82851F6B28AEA050A51F8085C8AEAA3
:109B3000050ACCF3072502EB8505D5F82859CCF3A7
:109B4000074C8AEA050AC8F3074502EB8505D5F8F4
:109B5000285D4FEA18688AEA050502EB860A02EBDF
:109B60008806D6F82861DAF8288502EB8C0288EAA4
:109B7000060851F8046CD2F8282D88EA06064640FB
:109B80005640FEE602EB800C200E02EB8000DCF873
:109B90002885D0F828015FFA84FC88EA0008086864
:109BA00002EB8C0C88EA0008C6F3072002EB800069
:109BB000D0F82809DCF828C588EA0008C5F3074072
:109BC00002EB8000D0F8280D5FFA85F988EA0008DA
:109BD000280E02EB8000D0F8280102EB89098CEAFC
:109BE000000C4868D9F828958CEA000CC7F30720C8
:109BF00002EB8000D0F82809C5F307258CEA000C99
:109C0000C6F3074002EB8000D0F8280D02EB850573
:109C10008CEA000C300E02EB8000D0F82801F6B27E
:109C200089EA0009886802EB860689EA0009C4F31C
:109C3000072002EB8000D0F82809D6F8286589EAC9
:109C40000009C7F3074002EB8000D0F8280D3F0E53
:109C500002EB870789EA0009D7F82801C4F3074413
:109C60007040CE6802EB84024640D5F82809D2F84D
:109C7000282D394F464056405FFA88F23A4492F810
:109C800030500A6907EB1C606A4090F83050C6F308
:109C90000720384482EA056290F8305082EA0525B0
:109CA000C9F307423A4492F8302085EA02455FFA48
:109CB0008CF23A4492F830004A69424007EB19604E
:109CC00090F8300082EA0062C8F30720384490F828
:109CD000300082EA0020C6F307423A4492F830206E
:109CE00080EA02405FFA89F23A4492F830408A6989
:109CF000C9F30729624007EB166494F83040F6B2C6
:109D000082EA0462CCF307243C4494F830403E4499
:109D100082EA0424C8F307423A4492F8302096F8C5
:109D2000306084EA0244CA6907EB186191F8301088
:109D3000724082EA016207EB090191F83010CCF31E
:109D4000074C674482EA012297F8301082EA014208
:109D5000ECE100BFF0610108E87201084FEA600A17
:109D60000AF1FF3A1146BAF1000FFAB27B4840F30C
:109D7000F78000EB8202D2F830810A680AF1FF3ADC
:109D800088EA0208320E00EB8202D2F83025203138
:109D900088EA0208C4F3072200EB8202D2F83029D5
:109DA00088EA0208C5F3074200EB8202D2F8302DA0
:109DB00088EA0208E2B200EB8202D2F830C151F820
:109DC0001C2C8CEA020C3A0E00EB8202D2F83025F1
:109DD0008CEA020CC5F3072200EB8202D2F830298C
:109DE0008CEA020CC6F3074200EB8202D2F8302D57
:109DF0008CEA020CEAB200EB8202D2F8309151F800
:109E0000182C2D0E89EA0209220E00EB8202D2F8EC
:109E1000302500EB850589EA0209C6F3072200EB2D
:109E20008202D2F83029F6B289EA0209C7F3074262
:109E300000EB8202D2F8302D00EB860689EA020997
:109E4000D6F8302151F8146CC7F307275640D5F8DF
:109E5000302500EB87075640C4F30744D7F8302974
:109E600000EB84045640D4F8302D5FFA88F4564055
:109E7000320E00EB840400EB8202D4F83071D2F889
:109E80003025574051F8102C5740CCF3072200EBF7
:109E90008202D2F83049C9F3074200EB82026740E0
:109EA000D2F8304D4FEA186267405FFA8CF400EB4D
:109EB000840400EB8202D2F83025D4F830415440BB
:109EC00051F80C2C5440C9F3072200EB8202D2F85F
:109ED0003059C6F3074200EB82026C40D2F8305D85
:109EE0004FEA1C626C405FFA89F500EB850500EBD8
:109EF0008202D5F83051D2F830254FEA19696A400C
:109F000051F8085CCCF3074C5540C6F3072200EB30
:109F10008202D2F83029F6B25540C8F3074200EB6E
:109F20008202D2F8302D00EB8606554000EB890204
:109F3000D2F83025D6F83061C8F30728564051F8DA
:109F4000042C724000EB8806D6F8306900EB8C00D8
:109F5000D0F8300D5640464005E700BFE8720108D2
:109F600000EB820C320E00EB8202DCF83081D2F87A
:109F700030255FFA84FC88EA02080A6800EB8C0C42
:109F800088EA0208C4F3072200EB8202D2F83029E3
:109F9000DCF830C188EA0208C5F3074200EB820210
:109FA000D2F8302D5FFA85F988EA02083A0E00EB04
:109FB0008202D2F8302500EB89098CEA020C4A684B
:109FC000D9F830918CEA020CC5F3072200EB82022B
:109FD000D2F830292D0E8CEA020CC6F3074200EBB2
:109FE0008202D2F8302D00EB85058CEA020C220E9D
:109FF00000EB8202D2F83025C4F3074489EA020953
:10A000008A6889EA0209C6F3072200EB8202D2F8C5
:10A010003029F6B289EA0209C7F3074200EB82024F
:10A02000D2F8302D00EB860689EA0209D6F83061B5
:10A03000D5F83025C7F3072700EB87075640CA68D5
:10A04000D7F8305900EB84005640D0F8300D464A1E
:10A050006E4046405FFA88F0104490F82850086936
:10A0600002EB1664684094F82850CCF3072414449B
:10A0700080EA056094F8285080EA0525C9F3074076
:10A08000104490F8280085EA00455FFA8CF01044EF
:10A0900090F828404869604002EB186494F8284022
:10A0A00080EA0460C9F30724144494F8284080EA45
:10A0B0000420C6F30744144494F8284080EA04407E
:10A0C0005FFA89F4144494F828708C69C9697C405B
:10A0D00002EB1C6797F82870CCF3074C84EA0764FE
:10A0E000C6F30727F6B2164496F82860174497F887
:10A0F0002870714002EB196696F8286084EA0724FC
:10A10000C8F30747C8F3072881EA066102EB08068F
:10A11000174496F82860624497F8287092F828202F
:10A1200081EA062184EA074481EA0242290A597039
:10A13000290C9970010A5971010C9971210A5972FF
:10A14000210C9972110A1D7018712D0E000E1C72CF
:10A150001A73240E5973110C120EDD70D871DC7253
:10A160009973DA73BDE8F087F06101082DE9F04FCB
:10A1700087B09946119B07469346109C8C4603EB8B
:10A18000020839B316464DE0286869681A4603C2CA
:10A19000083575451346F7D1002138462246334627
:10A1A000FFF7A4FB002119F80120735C534073549E
:10A1B00001311029F7D102AA4B4606AE154603CD50
:10A1C000B542186059602A4603F10803F6D11034ED
:10A1D000ABF1100BBBF1000FCBEB08062CDD2546D5
:10A1E00002AB04F1100ECFE719F805105A5D4A4092
:10A1F0000AF805200135102DF6D161465246534626
:10A200003846CDF804C0FFF771FBDDF804C05346B3
:10A210004A460AF1100153F8040B8B4242F8040B32
:10A22000F9D1103E04EB0B03002EC6EB0303C6EB83
:10A23000080A01DD0025D7E707B0BDE8F08FF8B5C3
:10A240000E46154600219C2204461F4609F00DFDCE
:10A25000069BC4F88C60C4F89050C4F89470C4F89D
:10A260009830F8BDF0B587B00C46054603A81746F0
:10A2700001F07EFE214603A86A6801F020FF044633
:10A28000F8B905F1080403A8214602F090F8002867
:10A2900004DB03A801F073FE0F481AE005F1680320
:10A2A00003A800930146234605F114026E6802F0EC
:10A2B000CBFC044628B903A83946324601F036FFE4
:10A2C000044603A801F05BFE14B10448204300E0FB
:10A2D000204607B0F0BD00BF00FCFFFFC0FBFFFF42
:10A2E0002DE9F0418CB0054603A80C46904601F0DC
:10A2F0003FFE06A801F03CFE09A801F039FE214608
:10A3000003A86A6801F0DBFE0446002853D103A8C5
:10A3100005F1080102F04BF8002804DB03A801F066
:10A320002EFE2D4855E005F1740305F12C0700932E
:10A3300006A803A905F144023B4602F085FC044649
:10A34000002838D105F1800305F13806009309A8EB
:10A3500003A905F15002334602F076FC04460028BA
:10A3600029D103A806A909AA02F03BF9044610BBAB
:10A3700006A803A905F15C0202F06AF90446D0B907
:10A3800003A806A93A4602F035FC044698B906A887
:10A3900003A9324602F05CF9044660B903A809A992
:10A3A00006AA02F0FEF8044628B903A841466A68E6
:10A3B00001F0BCFE044603A801F0E1FD06A801F08F
:10A3C000DEFD09A801F0DBFD14B10448204300E0E4
:10A3D00020460CB0BDE8F08100FCFFFFB0FBFFFFA2
:10A3E0002DE9F84F05461746D5F88C208A469B463E
:10A3F0000A9E4068002A37D1002F38DB07F10A0394
:10A40000834234DAA0F103093446022304F8022B14
:10A41000C7EB090973709046C8EB0903002B09DDEF
:10A4200009F0EEFCC0B204F808000028F8D008F1EA
:10A430000108F1E729EAE979002304EB090059460C
:10A440003A4604F80930013009F0EBFB2846314662
:10A450003246BAF1000F03D1BDE8F84FFFF702BF53
:10A46000BDE8F84FFFF73CBF0248BDE8F88F02484F
:10A47000BDE8F88FF0FBFFFF00FCFFFFF0B546687A
:10A480001746A6F11002B2F5F87FADF5017D04463E
:10A4900029D86D4621B919466A46FFF7E3FE03E065
:10A4A00019466A46FFF71CFFF8B9D4F88C40F4B996
:10A4B0002B78E3B96B78022B19D10DF10103591CEC
:10A4C0005B782BB1731E2B44994210D20B46F6E7F2
:10A4D00001316D1A879B72199A420ADC3A6086989C
:10A4E00009F09FFB06E0054C04E0044602E0044C42
:10A4F00000E0044C20460DF5017DF0BD00FCFFFF9F
:10A50000F0FBFFFF90FBFFFF2DE9F04FD0F8049028
:10A510001746A9F11002ADF5017DB2F5F87F0D46A1
:10A5200004469A468B9960D86E466A4615B9FFF77D
:10A5300099FE01E0FFF7D4FE002858D1D4F88C40F2
:10A54000002C56D13278002A53D17278012A50D18A
:10A550000DF1010B9BF801200BF1010542B109F14E
:10A56000FF3131448D4244D2FF2A42D1AB46F1E75C
:10A5700005F10108C8EB06064E44222E1FD195F8BE
:10A580000EB04046AA731F49122209F03BFB90BB54
:10A59000BBF1020F01D1022F08E0BBF1040F01D182
:10A5A000032F03E0BBF1050F18D1042F16D18A99B0
:10A5B00005F11300102209F025FBE8B11BE0232E62
:10A5C0000CD1052F0AD140460F490F2209F01AFB82
:10A5D00088B90BF111008A991422ECE7564508D18D
:10A5E0003FB940468A993246E5E7084C04E0044604
:10A5F00002E0074C00E0074C20460DF5017DBDE868
:10A60000F08F00BF488601085B86010800FCFFFF51
:10A61000F0FBFFFFA0FBFFFF10B50446803001F008
:10A62000AEFC04F1740001F0AAFC04F1680001F032
:10A63000A6FC04F15C0001F0A2FC04F1500001F062
:10A640009EFC04F1440001F09AFC04F1380001F092
:10A6500096FC04F12C0001F092FC04F1200001F0C2
:10A660008EFC04F1140001F08AFC04F10800BDE83E
:10A67000104001F084BC00002DE9F04F91F80190EA
:10A6800091F800B0CB784FEA09494F7949EA0B6954
:10A6900049EA03090B793F0447EA0367CB7997B08E
:10A6A0001F438B794E7A47EA032306930B7A3604CD
:10A6B00046EA0366CB7A91F80DC01E438B7A4FEAC7
:10A6C0000C4C46EA03260B7B91F811804CEA036C94
:10A6D000CB7B0D7C4CEA030C8B7B91F815A04CEAEC
:10A6E000032C4FEA0848CB7C0C7D48EA056848EA11
:10A6F00003084FEA0A4ACB7D13904AEA046A487E6F
:10A700004AEA030A0B7E000440EA0360CB7E0A7F1C
:10A7100018438B7E91F802B040EA032311934B7FDC
:10A720008D7C1B0443EA0263CA7F8C7D13438A7FBE
:10A7300049EA0B2943EA0222129291F8212091F86A
:10A740002030120442EA036291F8233091F825B0D8
:10A750001A4391F822304FEA0B4B42EA03230B9342
:10A7600091F824304AEA042A4BEA036B91F8273027
:10A7700048EA05284BEA030B91F826304BEA0323FD
:10A7800091F829B00C9391F828304FEA0B4B4BEA23
:10A79000036B91F82B304BEA030B91F82A304BEA0C
:10A7A000032391F82DB00D9391F82C304FEA0B4B09
:10A7B0004BEA036B91F82F304BEA030B91F82E30E4
:10A7C0004BEA032391F831B00E9391F830304FEA01
:10A7D0000B4B4BEA036B91F833304BEA030B91F8C8
:10A7E00032304BEA032391F835B0109391F83430AE
:10A7F0004FEA0B4B4BEA036B91F837304BEA030BF4
:10A8000091F836304BEA032391F839B0079391F869
:10A8100038304FEA0B4B4BEA036B91F83B304BEA75
:10A82000030B91F83A304BEA0323089391F83DB0BB
:10A8300091F83C304FEA0B4B4BEA036B91F83F30F9
:10A84000139A4BEA030391F83EB0139C43EA0B2B97
:10A85000139B13995B6913980293029D1269EE4B47
:10A86000C968A469039280686A4001940A401C4444
:10A87000039F05906A4004EBF064144428464FEAB5
:10A88000B102059D049182EA0701294079401844EC
:10A89000069F08444FEAB5053844039F4C4485EAB7
:10A8A00002011F44214000EBF46037444FEAB40436
:10A8B0005140394484EA05071A44074001EBF0612E
:10A8C0006F404FEAB00062443A4480EA04071D44F6
:10A8D0000F406740454402EBF1623D444FEAB1014D
:10A8E0000AEB03073C4481EA0007174047403C4419
:10A8F000119F05EBF2651F444FEAB202384482EA29
:10A9000001072F404F403844129F04EBF5641F4469
:10A910004FEAB505394485EA0207274057403944D4
:10A920000B9F00EBF4601F444FEAB4043A4484EAFE
:10A93000050707406F403A440C9F01EBF0611F444C
:10A940004FEAB0003D4480EA04070F4067403D44B1
:10A950000D9F02EBF1621F444FEAB1013C4481EAD2
:10A960000007174047403C440E9F05EBF2651F442B
:10A970004FEAB202384482EA01072F404F40384480
:10A98000109F04EBF5641F444FEAB505394485EA8E
:10A990000207274057403944079F00EBF4601F44EB
:10A9A0004FEAB4043A4484EA050707406F403A444A
:10A9B000089F01EBF0611F444FEAB0003D4480EA7C
:10A9C00004070F4067403D445F4602EBF1621F44BD
:10A9D0004FEAB1013C4481EA00071740CDF824B0AA
:10A9E000474086EA090BDDF82C903C44079F8BEA30
:10A9F000090B8BEA070B4FEAFB7B5F4605EBF26521
:10AA00001F444FEAB202384482EA0107CDF828B069
:10AA10002F40DDF81890DDF830B04F4038448CEA14
:10AA20000907DDF8209087EA0B0787EA09074FEA54
:10AA3000F777069704EBF5641F444FEAB5053944F0
:10AA400085EA02072740DDF834B05740394488EAE8
:10AA50000606099F86EA0B067E404FEAF6760F96B9
:10AA600000EBF4601E444FEAB404324484EA050665
:10AA70000640DDF838906E40DDF828B032448AEAAE
:10AA80000C0686EA090601EBF06186EA0B064FEA3E
:10AA9000B0004FEAF67680EA040C33440CEA010C6D
:10AAA0001D448CEA040C05EB0C07DDF844C0109B38
:10AAB0008CEA0805DDF818805D4085EA0805574BEB
:10AAC0004FEAF57502EBF1624FEAB10105EB0309BC
:10AAD00081EA000CDDF848B08CEA020C4C4404EB2F
